{
  "contractName": "AdminControl",
  "abi": [
    {
      "inputs": [],
      "stateMutability": "nonpayable",
      "type": "constructor"
    },
    {
      "anonymous": false,
      "inputs": [
        {
          "indexed": true,
          "internalType": "address",
          "name": "previousOwner",
          "type": "address"
        },
        {
          "indexed": true,
          "internalType": "address",
          "name": "newOwner",
          "type": "address"
        }
      ],
      "name": "OwnershipTransferred",
      "type": "event"
    },
    {
      "inputs": [
        {
          "internalType": "address",
          "name": "account",
          "type": "address"
        }
      ],
      "name": "grantMinterRole",
      "outputs": [],
      "stateMutability": "nonpayable",
      "type": "function"
    },
    {
      "inputs": [
        {
          "internalType": "address",
          "name": "account",
          "type": "address"
        }
      ],
      "name": "hasRole",
      "outputs": [
        {
          "internalType": "bool",
          "name": "",
          "type": "bool"
        }
      ],
      "stateMutability": "view",
      "type": "function"
    },
    {
      "inputs": [],
      "name": "owner",
      "outputs": [
        {
          "internalType": "address",
          "name": "",
          "type": "address"
        }
      ],
      "stateMutability": "view",
      "type": "function"
    },
    {
      "inputs": [],
      "name": "renounceOwnership",
      "outputs": [],
      "stateMutability": "nonpayable",
      "type": "function"
    },
    {
      "inputs": [
        {
          "internalType": "address",
          "name": "account",
          "type": "address"
        }
      ],
      "name": "revokeMinterRole",
      "outputs": [],
      "stateMutability": "nonpayable",
      "type": "function"
    },
    {
      "inputs": [
        {
          "internalType": "address",
          "name": "newOwner",
          "type": "address"
        }
      ],
      "name": "transferOwnership",
      "outputs": [],
      "stateMutability": "nonpayable",
      "type": "function"
    }
  ],
  "bytecode": "0x60806040523480156200001157600080fd5b50d380156200001f57600080fd5b50d280156200002d57600080fd5b506200004e620000426200006560201b60201c565b6200006d60201b60201c565b6200005f336200013160201b60201c565b620003e7565b600033905090565b60008060009054906101000a900473ffffffffffffffffffffffffffffffffffffffff169050816000806101000a81548173ffffffffffffffffffffffffffffffffffffffff021916908373ffffffffffffffffffffffffffffffffffffffff1602179055508173ffffffffffffffffffffffffffffffffffffffff168173ffffffffffffffffffffffffffffffffffffffff167f8be0079c531659141344cd1fd0a4f28419497f9722a3daafe3b4186f6b6457e060405160405180910390a35050565b6200014c8160016200014f60201b620004021790919060201c565b50565b6200016182826200020260201b60201c565b15620001a4576040517f08c379a00000000000000000000000000000000000000000000000000000000081526004016200019b906200032d565b60405180910390fd5b60018260000160008373ffffffffffffffffffffffffffffffffffffffff1673ffffffffffffffffffffffffffffffffffffffff16815260200190815260200160002060006101000a81548160ff0219169083151502179055505050565b60008073ffffffffffffffffffffffffffffffffffffffff168273ffffffffffffffffffffffffffffffffffffffff160362000275576040517f08c379a00000000000000000000000000000000000000000000000000000000081526004016200026c90620003c5565b60405180910390fd5b8260000160008373ffffffffffffffffffffffffffffffffffffffff1673ffffffffffffffffffffffffffffffffffffffff16815260200190815260200160002060009054906101000a900460ff16905092915050565b600082825260208201905092915050565b7f526f6c65733a206163636f756e7420616c72656164792068617320726f6c6500600082015250565b600062000315601f83620002cc565b91506200032282620002dd565b602082019050919050565b60006020820190508181036000830152620003488162000306565b9050919050565b7f526f6c65733a206163636f756e7420697320746865207a65726f20616464726560008201527f7373000000000000000000000000000000000000000000000000000000000000602082015250565b6000620003ad602283620002cc565b9150620003ba826200034f565b604082019050919050565b60006020820190508181036000830152620003e0816200039e565b9050919050565b610b0380620003f76000396000f3fe608060405234801561001057600080fd5b50d3801561001d57600080fd5b50d2801561002a57600080fd5b506004361061007c5760003560e01c80633dd1eb611461008157806369e2f0fb1461009d578063715018a6146100b95780637ef09bca146100c35780638da5cb5b146100f3578063f2fde38b14610111575b600080fd5b61009b600480360381019061009691906107a1565b61012d565b005b6100b760048036038101906100b291906107a1565b6101b5565b005b6100c161023d565b005b6100dd60048036038101906100d891906107a1565b6102c5565b6040516100ea91906107e9565b60405180910390f35b6100fb6102e2565b6040516101089190610813565b60405180910390f35b61012b600480360381019061012691906107a1565b61030b565b005b6101356104aa565b73ffffffffffffffffffffffffffffffffffffffff166101536102e2565b73ffffffffffffffffffffffffffffffffffffffff16146101a9576040517f08c379a00000000000000000000000000000000000000000000000000000000081526004016101a09061088b565b60405180910390fd5b6101b2816104b2565b50565b6101bd6104aa565b73ffffffffffffffffffffffffffffffffffffffff166101db6102e2565b73ffffffffffffffffffffffffffffffffffffffff1614610231576040517f08c379a00000000000000000000000000000000000000000000000000000000081526004016102289061088b565b60405180910390fd5b61023a816104c9565b50565b6102456104aa565b73ffffffffffffffffffffffffffffffffffffffff166102636102e2565b73ffffffffffffffffffffffffffffffffffffffff16146102b9576040517f08c379a00000000000000000000000000000000000000000000000000000000081526004016102b09061088b565b60405180910390fd5b6102c360006104e0565b565b60006102db8260016105a490919063ffffffff16565b9050919050565b60008060009054906101000a900473ffffffffffffffffffffffffffffffffffffffff16905090565b6103136104aa565b73ffffffffffffffffffffffffffffffffffffffff166103316102e2565b73ffffffffffffffffffffffffffffffffffffffff1614610387576040517f08c379a000000000000000000000000000000000000000000000000000000000815260040161037e9061088b565b60405180910390fd5b600073ffffffffffffffffffffffffffffffffffffffff168173ffffffffffffffffffffffffffffffffffffffff16036103f6576040517f08c379a00000000000000000000000000000000000000000000000000000000081526004016103ed9061091d565b60405180910390fd5b6103ff816104e0565b50565b61040c82826105a4565b1561044c576040517f08c379a000000000000000000000000000000000000000000000000000000000815260040161044390610989565b60405180910390fd5b60018260000160008373ffffffffffffffffffffffffffffffffffffffff1673ffffffffffffffffffffffffffffffffffffffff16815260200190815260200160002060006101000a81548160ff0219169083151502179055505050565b600033905090565b6104c681600161040290919063ffffffff16565b50565b6104dd81600161066b90919063ffffffff16565b50565b60008060009054906101000a900473ffffffffffffffffffffffffffffffffffffffff169050816000806101000a81548173ffffffffffffffffffffffffffffffffffffffff021916908373ffffffffffffffffffffffffffffffffffffffff1602179055508173ffffffffffffffffffffffffffffffffffffffff168173ffffffffffffffffffffffffffffffffffffffff167f8be0079c531659141344cd1fd0a4f28419497f9722a3daafe3b4186f6b6457e060405160405180910390a35050565b60008073ffffffffffffffffffffffffffffffffffffffff168273ffffffffffffffffffffffffffffffffffffffff1603610614576040517f08c379a000000000000000000000000000000000000000000000000000000000815260040161060b90610a1b565b60405180910390fd5b8260000160008373ffffffffffffffffffffffffffffffffffffffff1673ffffffffffffffffffffffffffffffffffffffff16815260200190815260200160002060009054906101000a900460ff16905092915050565b61067582826105a4565b6106b4576040517f08c379a00000000000000000000000000000000000000000000000000000000081526004016106ab90610aad565b60405180910390fd5b60008260000160008373ffffffffffffffffffffffffffffffffffffffff1673ffffffffffffffffffffffffffffffffffffffff16815260200190815260200160002060006101000a81548160ff0219169083151502179055505050565b600080fd5b600074ffffffffffffffffffffffffffffffffffffffffff82169050919050565b61074181610717565b811461074c57600080fd5b50565b600073ffffffffffffffffffffffffffffffffffffffff82169050919050565b600061077a8261074f565b9050919050565b60008135905061079081610738565b6107998161076f565b905092915050565b6000602082840312156107b7576107b6610712565b5b60006107c584828501610781565b91505092915050565b60008115159050919050565b6107e3816107ce565b82525050565b60006020820190506107fe60008301846107da565b92915050565b61080d8161076f565b82525050565b60006020820190506108286000830184610804565b92915050565b600082825260208201905092915050565b7f4f776e61626c653a2063616c6c6572206973206e6f7420746865206f776e6572600082015250565b600061087560208361082e565b91506108808261083f565b602082019050919050565b600060208201905081810360008301526108a481610868565b9050919050565b7f4f776e61626c653a206e6577206f776e657220697320746865207a65726f206160008201527f6464726573730000000000000000000000000000000000000000000000000000602082015250565b600061090760268361082e565b9150610912826108ab565b604082019050919050565b60006020820190508181036000830152610936816108fa565b9050919050565b7f526f6c65733a206163636f756e7420616c72656164792068617320726f6c6500600082015250565b6000610973601f8361082e565b915061097e8261093d565b602082019050919050565b600060208201905081810360008301526109a281610966565b9050919050565b7f526f6c65733a206163636f756e7420697320746865207a65726f20616464726560008201527f7373000000000000000000000000000000000000000000000000000000000000602082015250565b6000610a0560228361082e565b9150610a10826109a9565b604082019050919050565b60006020820190508181036000830152610a34816109f8565b9050919050565b7f526f6c65733a206163636f756e7420646f6573206e6f74206861766520726f6c60008201527f6500000000000000000000000000000000000000000000000000000000000000602082015250565b6000610a9760218361082e565b9150610aa282610a3b565b604082019050919050565b60006020820190508181036000830152610ac681610a8a565b905091905056fea26474726f6e5822122034c9a89060eaf1a979d5c7ad38a93356d17812adc3716fbe627d7a1f82efc10664736f6c63430008120033",
  "source": "//SPDX-License-Identifier:MIT\npragma solidity ^0.8.17;\n\n\n\nimport {Ownable} from \"./Ownable.sol\";\nimport {Roles} from \"./libraries/Roles.sol\";\n\ncontract AdminControl is Ownable {\n\n    using Roles for Roles.Role;\n\n    Roles.Role private _controllerRoles;\n\n\n    modifier onlyMinterController() {\n      require (\n        hasRole(msg.sender), \n        \"AdminControl: sender must has minting role\"\n      );\n      _;\n    }\n\n    modifier onlyMinter() {\n      require (\n        hasRole(msg.sender), \n        \"AdminControl: sender must has minting role\"\n      );\n      _;\n    }\n\n    constructor() {\n      _grantRole(msg.sender);\n    }\n\n    function grantMinterRole (address account) public  onlyOwner {\n      _grantRole(account);\n    }\n\n    function revokeMinterRole (address account) public  onlyOwner {\n      _revokeRole(account);\n    }\n\n    function hasRole(address account) public view returns (bool) {\n      return _controllerRoles.has(account);\n    }\n    \n    function _grantRole (address account) internal {\n      _controllerRoles.add(account);\n    }\n\n    function _revokeRole (address account) internal {\n      _controllerRoles.remove(account);\n    }\n\n}",
  "sourcePath": "/home/ideofuzion/Tron/monorepo/TNS/smartcontracts/contracts/AdminControl.sol",
  "compiler": {
    "name": "solc",
    "version": "0.8.18+commit.f18bedfe.Emscripten.clang"
  },
  "schemaVersion": "2.0.1",
  "updatedAt": "2023-06-19T12:11:26.635Z"
}