{
  "contractName": "TWS",
  "abi": [
    {
      "inputs": [],
      "stateMutability": "nonpayable",
      "type": "constructor"
    },
    {
      "anonymous": false,
      "inputs": [
        {
          "indexed": true,
          "internalType": "address",
          "name": "owner",
          "type": "address"
        },
        {
          "indexed": true,
          "internalType": "address",
          "name": "approved",
          "type": "address"
        },
        {
          "indexed": true,
          "internalType": "uint256",
          "name": "tokenId",
          "type": "uint256"
        }
      ],
      "name": "Approval",
      "type": "event"
    },
    {
      "anonymous": false,
      "inputs": [
        {
          "indexed": true,
          "internalType": "address",
          "name": "owner",
          "type": "address"
        },
        {
          "indexed": true,
          "internalType": "address",
          "name": "operator",
          "type": "address"
        },
        {
          "indexed": false,
          "internalType": "bool",
          "name": "approved",
          "type": "bool"
        }
      ],
      "name": "ApprovalForAll",
      "type": "event"
    },
    {
      "anonymous": false,
      "inputs": [
        {
          "indexed": true,
          "internalType": "uint256",
          "name": "tokenId",
          "type": "uint256"
        },
        {
          "indexed": true,
          "internalType": "string",
          "name": "keyIndex",
          "type": "string"
        },
        {
          "indexed": false,
          "internalType": "string",
          "name": "key",
          "type": "string"
        }
      ],
      "name": "NewKey",
      "type": "event"
    },
    {
      "anonymous": false,
      "inputs": [
        {
          "indexed": true,
          "internalType": "uint256",
          "name": "tokenId",
          "type": "uint256"
        },
        {
          "indexed": false,
          "internalType": "string",
          "name": "tokenUri",
          "type": "string"
        }
      ],
      "name": "NewURI",
      "type": "event"
    },
    {
      "anonymous": false,
      "inputs": [
        {
          "indexed": true,
          "internalType": "address",
          "name": "previousOwner",
          "type": "address"
        },
        {
          "indexed": true,
          "internalType": "address",
          "name": "newOwner",
          "type": "address"
        }
      ],
      "name": "OwnershipTransferred",
      "type": "event"
    },
    {
      "anonymous": false,
      "inputs": [
        {
          "indexed": true,
          "internalType": "uint256",
          "name": "tokenId",
          "type": "uint256"
        }
      ],
      "name": "ResetRecords",
      "type": "event"
    },
    {
      "anonymous": false,
      "inputs": [
        {
          "indexed": true,
          "internalType": "uint256",
          "name": "tokenId",
          "type": "uint256"
        },
        {
          "indexed": true,
          "internalType": "string",
          "name": "keyIndex",
          "type": "string"
        },
        {
          "indexed": true,
          "internalType": "string",
          "name": "valueIndex",
          "type": "string"
        },
        {
          "indexed": false,
          "internalType": "string",
          "name": "key",
          "type": "string"
        },
        {
          "indexed": false,
          "internalType": "string",
          "name": "value",
          "type": "string"
        }
      ],
      "name": "Set",
      "type": "event"
    },
    {
      "anonymous": false,
      "inputs": [
        {
          "indexed": true,
          "internalType": "address",
          "name": "from",
          "type": "address"
        },
        {
          "indexed": true,
          "internalType": "address",
          "name": "to",
          "type": "address"
        },
        {
          "indexed": true,
          "internalType": "uint256",
          "name": "tokenId",
          "type": "uint256"
        }
      ],
      "name": "Transfer",
      "type": "event"
    },
    {
      "inputs": [
        {
          "internalType": "bytes",
          "name": "",
          "type": "bytes"
        }
      ],
      "name": "_bookingList",
      "outputs": [
        {
          "internalType": "string",
          "name": "",
          "type": "string"
        }
      ],
      "stateMutability": "view",
      "type": "function"
    },
    {
      "inputs": [],
      "name": "_isBookingListActive",
      "outputs": [
        {
          "internalType": "bool",
          "name": "",
          "type": "bool"
        }
      ],
      "stateMutability": "view",
      "type": "function"
    },
    {
      "inputs": [],
      "name": "_isWhiteListActive",
      "outputs": [
        {
          "internalType": "bool",
          "name": "",
          "type": "bool"
        }
      ],
      "stateMutability": "view",
      "type": "function"
    },
    {
      "inputs": [
        {
          "internalType": "uint256",
          "name": "",
          "type": "uint256"
        }
      ],
      "name": "_nativeAddress",
      "outputs": [
        {
          "internalType": "bytes",
          "name": "",
          "type": "bytes"
        }
      ],
      "stateMutability": "view",
      "type": "function"
    },
    {
      "inputs": [],
      "name": "_saleIsActive",
      "outputs": [
        {
          "internalType": "bool",
          "name": "",
          "type": "bool"
        }
      ],
      "stateMutability": "view",
      "type": "function"
    },
    {
      "inputs": [],
      "name": "_saleTwoCharIsActive",
      "outputs": [
        {
          "internalType": "bool",
          "name": "",
          "type": "bool"
        }
      ],
      "stateMutability": "view",
      "type": "function"
    },
    {
      "inputs": [
        {
          "internalType": "uint256",
          "name": "",
          "type": "uint256"
        }
      ],
      "name": "_tokenURIs",
      "outputs": [
        {
          "internalType": "string",
          "name": "",
          "type": "string"
        }
      ],
      "stateMutability": "view",
      "type": "function"
    },
    {
      "inputs": [
        {
          "internalType": "address",
          "name": "",
          "type": "address"
        }
      ],
      "name": "_whiteList",
      "outputs": [
        {
          "internalType": "uint256",
          "name": "",
          "type": "uint256"
        }
      ],
      "stateMutability": "view",
      "type": "function"
    },
    {
      "inputs": [
        {
          "internalType": "string",
          "name": "name",
          "type": "string"
        }
      ],
      "name": "addBookingList",
      "outputs": [],
      "stateMutability": "nonpayable",
      "type": "function"
    },
    {
      "inputs": [
        {
          "internalType": "string[]",
          "name": "names",
          "type": "string[]"
        }
      ],
      "name": "addBookingLists",
      "outputs": [],
      "stateMutability": "nonpayable",
      "type": "function"
    },
    {
      "inputs": [
        {
          "internalType": "string",
          "name": "key",
          "type": "string"
        }
      ],
      "name": "addKey",
      "outputs": [],
      "stateMutability": "nonpayable",
      "type": "function"
    },
    {
      "inputs": [
        {
          "internalType": "address",
          "name": "account",
          "type": "address"
        },
        {
          "internalType": "uint256",
          "name": "numbers",
          "type": "uint256"
        }
      ],
      "name": "addWhiteList",
      "outputs": [],
      "stateMutability": "nonpayable",
      "type": "function"
    },
    {
      "inputs": [
        {
          "internalType": "address[]",
          "name": "accounts",
          "type": "address[]"
        },
        {
          "internalType": "uint256",
          "name": "numbers",
          "type": "uint256"
        }
      ],
      "name": "addWhiteLists",
      "outputs": [],
      "stateMutability": "nonpayable",
      "type": "function"
    },
    {
      "inputs": [
        {
          "internalType": "address",
          "name": "to",
          "type": "address"
        },
        {
          "internalType": "uint256",
          "name": "tokenId",
          "type": "uint256"
        }
      ],
      "name": "approve",
      "outputs": [],
      "stateMutability": "nonpayable",
      "type": "function"
    },
    {
      "inputs": [
        {
          "internalType": "address",
          "name": "owner",
          "type": "address"
        }
      ],
      "name": "balanceOf",
      "outputs": [
        {
          "internalType": "uint256",
          "name": "",
          "type": "uint256"
        }
      ],
      "stateMutability": "view",
      "type": "function"
    },
    {
      "inputs": [
        {
          "internalType": "uint256",
          "name": "tokenId",
          "type": "uint256"
        }
      ],
      "name": "burn",
      "outputs": [],
      "stateMutability": "nonpayable",
      "type": "function"
    },
    {
      "inputs": [
        {
          "internalType": "uint256",
          "name": "tokenId",
          "type": "uint256"
        },
        {
          "internalType": "string",
          "name": "sub",
          "type": "string"
        }
      ],
      "name": "burnSubDomain",
      "outputs": [],
      "stateMutability": "nonpayable",
      "type": "function"
    },
    {
      "inputs": [
        {
          "internalType": "string",
          "name": "domain",
          "type": "string"
        },
        {
          "internalType": "string",
          "name": "tld",
          "type": "string"
        }
      ],
      "name": "buyDomain",
      "outputs": [],
      "stateMutability": "payable",
      "type": "function"
    },
    {
      "inputs": [
        {
          "internalType": "string",
          "name": "name",
          "type": "string"
        }
      ],
      "name": "chkInBookingList",
      "outputs": [
        {
          "internalType": "bool",
          "name": "",
          "type": "bool"
        }
      ],
      "stateMutability": "view",
      "type": "function"
    },
    {
      "inputs": [
        {
          "internalType": "address",
          "name": "addr",
          "type": "address"
        }
      ],
      "name": "chkInWhiteList",
      "outputs": [
        {
          "internalType": "bool",
          "name": "",
          "type": "bool"
        }
      ],
      "stateMutability": "view",
      "type": "function"
    },
    {
      "inputs": [
        {
          "internalType": "uint256",
          "name": "tokenId",
          "type": "uint256"
        }
      ],
      "name": "exists",
      "outputs": [
        {
          "internalType": "bool",
          "name": "",
          "type": "bool"
        }
      ],
      "stateMutability": "view",
      "type": "function"
    },
    {
      "inputs": [
        {
          "internalType": "string",
          "name": "label",
          "type": "string"
        }
      ],
      "name": "genTokenId",
      "outputs": [
        {
          "internalType": "uint256",
          "name": "",
          "type": "uint256"
        }
      ],
      "stateMutability": "pure",
      "type": "function"
    },
    {
      "inputs": [
        {
          "internalType": "string",
          "name": "key",
          "type": "string"
        },
        {
          "internalType": "uint256",
          "name": "tokenId",
          "type": "uint256"
        }
      ],
      "name": "get",
      "outputs": [
        {
          "internalType": "string",
          "name": "value",
          "type": "string"
        }
      ],
      "stateMutability": "view",
      "type": "function"
    },
    {
      "inputs": [
        {
          "internalType": "uint256",
          "name": "tokenId",
          "type": "uint256"
        }
      ],
      "name": "getApproved",
      "outputs": [
        {
          "internalType": "address",
          "name": "",
          "type": "address"
        }
      ],
      "stateMutability": "view",
      "type": "function"
    },
    {
      "inputs": [
        {
          "internalType": "uint256",
          "name": "keyHash",
          "type": "uint256"
        },
        {
          "internalType": "uint256",
          "name": "tokenId",
          "type": "uint256"
        }
      ],
      "name": "getByHash",
      "outputs": [
        {
          "internalType": "string",
          "name": "key",
          "type": "string"
        },
        {
          "internalType": "string",
          "name": "value",
          "type": "string"
        }
      ],
      "stateMutability": "view",
      "type": "function"
    },
    {
      "inputs": [
        {
          "internalType": "uint256",
          "name": "keyHash",
          "type": "uint256"
        }
      ],
      "name": "getKey",
      "outputs": [
        {
          "internalType": "string",
          "name": "",
          "type": "string"
        }
      ],
      "stateMutability": "view",
      "type": "function"
    },
    {
      "inputs": [
        {
          "internalType": "uint256[]",
          "name": "hashes",
          "type": "uint256[]"
        }
      ],
      "name": "getKeys",
      "outputs": [
        {
          "internalType": "string[]",
          "name": "values",
          "type": "string[]"
        }
      ],
      "stateMutability": "view",
      "type": "function"
    },
    {
      "inputs": [
        {
          "internalType": "string[]",
          "name": "keys",
          "type": "string[]"
        },
        {
          "internalType": "uint256",
          "name": "tokenId",
          "type": "uint256"
        }
      ],
      "name": "getMany",
      "outputs": [
        {
          "internalType": "string[]",
          "name": "values",
          "type": "string[]"
        }
      ],
      "stateMutability": "view",
      "type": "function"
    },
    {
      "inputs": [
        {
          "internalType": "uint256[]",
          "name": "keyHashes",
          "type": "uint256[]"
        },
        {
          "internalType": "uint256",
          "name": "tokenId",
          "type": "uint256"
        }
      ],
      "name": "getManyByHash",
      "outputs": [
        {
          "internalType": "string[]",
          "name": "keys",
          "type": "string[]"
        },
        {
          "internalType": "string[]",
          "name": "values",
          "type": "string[]"
        }
      ],
      "stateMutability": "view",
      "type": "function"
    },
    {
      "inputs": [
        {
          "internalType": "string",
          "name": "domain",
          "type": "string"
        }
      ],
      "name": "getOwner",
      "outputs": [
        {
          "internalType": "address",
          "name": "",
          "type": "address"
        }
      ],
      "stateMutability": "view",
      "type": "function"
    },
    {
      "inputs": [],
      "name": "getPrice",
      "outputs": [
        {
          "internalType": "uint256",
          "name": "",
          "type": "uint256"
        }
      ],
      "stateMutability": "view",
      "type": "function"
    },
    {
      "inputs": [
        {
          "internalType": "address",
          "name": "account",
          "type": "address"
        }
      ],
      "name": "grantMinterRole",
      "outputs": [],
      "stateMutability": "nonpayable",
      "type": "function"
    },
    {
      "inputs": [
        {
          "internalType": "address",
          "name": "account",
          "type": "address"
        }
      ],
      "name": "hasRole",
      "outputs": [
        {
          "internalType": "bool",
          "name": "",
          "type": "bool"
        }
      ],
      "stateMutability": "view",
      "type": "function"
    },
    {
      "inputs": [
        {
          "internalType": "address",
          "name": "owner",
          "type": "address"
        },
        {
          "internalType": "address",
          "name": "operator",
          "type": "address"
        }
      ],
      "name": "isApprovedForAll",
      "outputs": [
        {
          "internalType": "bool",
          "name": "",
          "type": "bool"
        }
      ],
      "stateMutability": "view",
      "type": "function"
    },
    {
      "inputs": [
        {
          "internalType": "address",
          "name": "account",
          "type": "address"
        },
        {
          "internalType": "uint256",
          "name": "tokenId",
          "type": "uint256"
        }
      ],
      "name": "isApprovedOrOwner",
      "outputs": [
        {
          "internalType": "bool",
          "name": "",
          "type": "bool"
        }
      ],
      "stateMutability": "view",
      "type": "function"
    },
    {
      "inputs": [
        {
          "internalType": "string",
          "name": "_tld",
          "type": "string"
        }
      ],
      "name": "isTLD",
      "outputs": [
        {
          "internalType": "bool",
          "name": "",
          "type": "bool"
        }
      ],
      "stateMutability": "view",
      "type": "function"
    },
    {
      "inputs": [],
      "name": "name",
      "outputs": [
        {
          "internalType": "string",
          "name": "",
          "type": "string"
        }
      ],
      "stateMutability": "view",
      "type": "function"
    },
    {
      "inputs": [
        {
          "internalType": "address",
          "name": "addr",
          "type": "address"
        }
      ],
      "name": "numberInWhiteList",
      "outputs": [
        {
          "internalType": "uint256",
          "name": "",
          "type": "uint256"
        }
      ],
      "stateMutability": "view",
      "type": "function"
    },
    {
      "inputs": [],
      "name": "owner",
      "outputs": [
        {
          "internalType": "address",
          "name": "",
          "type": "address"
        }
      ],
      "stateMutability": "view",
      "type": "function"
    },
    {
      "inputs": [
        {
          "internalType": "uint256",
          "name": "tokenId",
          "type": "uint256"
        }
      ],
      "name": "ownerOf",
      "outputs": [
        {
          "internalType": "address",
          "name": "",
          "type": "address"
        }
      ],
      "stateMutability": "view",
      "type": "function"
    },
    {
      "inputs": [
        {
          "internalType": "string[]",
          "name": "keys",
          "type": "string[]"
        },
        {
          "internalType": "string[]",
          "name": "values",
          "type": "string[]"
        },
        {
          "internalType": "uint256",
          "name": "tokenId",
          "type": "uint256"
        }
      ],
      "name": "reconfigure",
      "outputs": [],
      "stateMutability": "nonpayable",
      "type": "function"
    },
    {
      "inputs": [
        {
          "internalType": "address",
          "name": "to",
          "type": "address"
        },
        {
          "internalType": "string",
          "name": "domain",
          "type": "string"
        },
        {
          "internalType": "string",
          "name": "tld",
          "type": "string"
        }
      ],
      "name": "registerDomain",
      "outputs": [],
      "stateMutability": "nonpayable",
      "type": "function"
    },
    {
      "inputs": [
        {
          "internalType": "address",
          "name": "to",
          "type": "address"
        },
        {
          "internalType": "uint256",
          "name": "tokenId",
          "type": "uint256"
        },
        {
          "internalType": "string",
          "name": "sub",
          "type": "string"
        }
      ],
      "name": "registerSubDomain",
      "outputs": [],
      "stateMutability": "nonpayable",
      "type": "function"
    },
    {
      "inputs": [
        {
          "internalType": "string",
          "name": "name",
          "type": "string"
        }
      ],
      "name": "removeBookingList",
      "outputs": [],
      "stateMutability": "nonpayable",
      "type": "function"
    },
    {
      "inputs": [
        {
          "internalType": "uint256",
          "name": "tokenId",
          "type": "uint256"
        }
      ],
      "name": "removeResolver",
      "outputs": [],
      "stateMutability": "nonpayable",
      "type": "function"
    },
    {
      "inputs": [],
      "name": "removeReverse",
      "outputs": [],
      "stateMutability": "nonpayable",
      "type": "function"
    },
    {
      "inputs": [],
      "name": "renounceOwnership",
      "outputs": [],
      "stateMutability": "nonpayable",
      "type": "function"
    },
    {
      "inputs": [
        {
          "internalType": "uint256",
          "name": "tokenId",
          "type": "uint256"
        }
      ],
      "name": "reset",
      "outputs": [],
      "stateMutability": "nonpayable",
      "type": "function"
    },
    {
      "inputs": [
        {
          "internalType": "uint256",
          "name": "tokenId",
          "type": "uint256"
        }
      ],
      "name": "resolverOf",
      "outputs": [
        {
          "internalType": "address",
          "name": "",
          "type": "address"
        }
      ],
      "stateMutability": "view",
      "type": "function"
    },
    {
      "inputs": [
        {
          "internalType": "address",
          "name": "account",
          "type": "address"
        }
      ],
      "name": "reverseOf",
      "outputs": [
        {
          "internalType": "string",
          "name": "",
          "type": "string"
        }
      ],
      "stateMutability": "view",
      "type": "function"
    },
    {
      "inputs": [
        {
          "internalType": "address",
          "name": "account",
          "type": "address"
        }
      ],
      "name": "revokeMinterRole",
      "outputs": [],
      "stateMutability": "nonpayable",
      "type": "function"
    },
    {
      "inputs": [
        {
          "internalType": "address",
          "name": "from",
          "type": "address"
        },
        {
          "internalType": "address",
          "name": "to",
          "type": "address"
        },
        {
          "internalType": "uint256",
          "name": "tokenId",
          "type": "uint256"
        }
      ],
      "name": "safeTransferFrom",
      "outputs": [],
      "stateMutability": "nonpayable",
      "type": "function"
    },
    {
      "inputs": [
        {
          "internalType": "address",
          "name": "from",
          "type": "address"
        },
        {
          "internalType": "address",
          "name": "to",
          "type": "address"
        },
        {
          "internalType": "uint256",
          "name": "tokenId",
          "type": "uint256"
        },
        {
          "internalType": "bytes",
          "name": "_data",
          "type": "bytes"
        }
      ],
      "name": "safeTransferFrom",
      "outputs": [],
      "stateMutability": "nonpayable",
      "type": "function"
    },
    {
      "inputs": [
        {
          "internalType": "string",
          "name": "key",
          "type": "string"
        },
        {
          "internalType": "string",
          "name": "value",
          "type": "string"
        },
        {
          "internalType": "uint256",
          "name": "tokenId",
          "type": "uint256"
        }
      ],
      "name": "set",
      "outputs": [],
      "stateMutability": "nonpayable",
      "type": "function"
    },
    {
      "inputs": [
        {
          "internalType": "address",
          "name": "operator",
          "type": "address"
        },
        {
          "internalType": "bool",
          "name": "approved",
          "type": "bool"
        }
      ],
      "name": "setApprovalForAll",
      "outputs": [],
      "stateMutability": "nonpayable",
      "type": "function"
    },
    {
      "inputs": [
        {
          "internalType": "string",
          "name": "_uri",
          "type": "string"
        }
      ],
      "name": "setBaseURI",
      "outputs": [],
      "stateMutability": "nonpayable",
      "type": "function"
    },
    {
      "inputs": [],
      "name": "setBookingListActive",
      "outputs": [],
      "stateMutability": "nonpayable",
      "type": "function"
    },
    {
      "inputs": [
        {
          "internalType": "uint256",
          "name": "keyHash",
          "type": "uint256"
        },
        {
          "internalType": "string",
          "name": "value",
          "type": "string"
        },
        {
          "internalType": "uint256",
          "name": "tokenId",
          "type": "uint256"
        }
      ],
      "name": "setByHash",
      "outputs": [],
      "stateMutability": "nonpayable",
      "type": "function"
    },
    {
      "inputs": [
        {
          "internalType": "string[]",
          "name": "keys",
          "type": "string[]"
        },
        {
          "internalType": "string[]",
          "name": "values",
          "type": "string[]"
        },
        {
          "internalType": "uint256",
          "name": "tokenId",
          "type": "uint256"
        }
      ],
      "name": "setMany",
      "outputs": [],
      "stateMutability": "nonpayable",
      "type": "function"
    },
    {
      "inputs": [
        {
          "internalType": "uint256[]",
          "name": "keyHashes",
          "type": "uint256[]"
        },
        {
          "internalType": "string[]",
          "name": "values",
          "type": "string[]"
        },
        {
          "internalType": "uint256",
          "name": "tokenId",
          "type": "uint256"
        }
      ],
      "name": "setManyByHash",
      "outputs": [],
      "stateMutability": "nonpayable",
      "type": "function"
    },
    {
      "inputs": [
        {
          "internalType": "address",
          "name": "to",
          "type": "address"
        },
        {
          "internalType": "uint256",
          "name": "tokenId",
          "type": "uint256"
        }
      ],
      "name": "setOwner",
      "outputs": [],
      "stateMutability": "nonpayable",
      "type": "function"
    },
    {
      "inputs": [
        {
          "internalType": "uint256",
          "name": "price",
          "type": "uint256"
        }
      ],
      "name": "setPrice",
      "outputs": [],
      "stateMutability": "nonpayable",
      "type": "function"
    },
    {
      "inputs": [
        {
          "internalType": "uint256",
          "name": "tokenId",
          "type": "uint256"
        },
        {
          "internalType": "address",
          "name": "resolver",
          "type": "address"
        }
      ],
      "name": "setResolver",
      "outputs": [],
      "stateMutability": "nonpayable",
      "type": "function"
    },
    {
      "inputs": [
        {
          "internalType": "uint256",
          "name": "tokenId",
          "type": "uint256"
        }
      ],
      "name": "setReverse",
      "outputs": [],
      "stateMutability": "nonpayable",
      "type": "function"
    },
    {
      "inputs": [],
      "name": "setSaleState",
      "outputs": [],
      "stateMutability": "nonpayable",
      "type": "function"
    },
    {
      "inputs": [],
      "name": "setSaleStateTwoChar",
      "outputs": [],
      "stateMutability": "nonpayable",
      "type": "function"
    },
    {
      "inputs": [
        {
          "internalType": "string",
          "name": "_tld",
          "type": "string"
        }
      ],
      "name": "setTLD",
      "outputs": [],
      "stateMutability": "nonpayable",
      "type": "function"
    },
    {
      "inputs": [
        {
          "internalType": "uint256",
          "name": "_2chartimenew",
          "type": "uint256"
        },
        {
          "internalType": "uint256",
          "name": "_3chartimenew",
          "type": "uint256"
        },
        {
          "internalType": "uint256",
          "name": "_4chartimenew",
          "type": "uint256"
        }
      ],
      "name": "setTimes",
      "outputs": [],
      "stateMutability": "nonpayable",
      "type": "function"
    },
    {
      "inputs": [],
      "name": "setWhiteListActive",
      "outputs": [],
      "stateMutability": "nonpayable",
      "type": "function"
    },
    {
      "inputs": [
        {
          "internalType": "uint256",
          "name": "tokenId",
          "type": "uint256"
        },
        {
          "internalType": "uint256",
          "name": "index",
          "type": "uint256"
        }
      ],
      "name": "subTokenIdByIndex",
      "outputs": [
        {
          "internalType": "uint256",
          "name": "",
          "type": "uint256"
        }
      ],
      "stateMutability": "view",
      "type": "function"
    },
    {
      "inputs": [
        {
          "internalType": "uint256",
          "name": "tokenId",
          "type": "uint256"
        }
      ],
      "name": "subTokenIdCount",
      "outputs": [
        {
          "internalType": "uint256",
          "name": "",
          "type": "uint256"
        }
      ],
      "stateMutability": "view",
      "type": "function"
    },
    {
      "inputs": [
        {
          "internalType": "bytes4",
          "name": "interfaceId",
          "type": "bytes4"
        }
      ],
      "name": "supportsInterface",
      "outputs": [
        {
          "internalType": "bool",
          "name": "",
          "type": "bool"
        }
      ],
      "stateMutability": "view",
      "type": "function"
    },
    {
      "inputs": [],
      "name": "symbol",
      "outputs": [
        {
          "internalType": "string",
          "name": "",
          "type": "string"
        }
      ],
      "stateMutability": "view",
      "type": "function"
    },
    {
      "inputs": [
        {
          "internalType": "uint256",
          "name": "index",
          "type": "uint256"
        }
      ],
      "name": "tokenByIndex",
      "outputs": [
        {
          "internalType": "uint256",
          "name": "",
          "type": "uint256"
        }
      ],
      "stateMutability": "view",
      "type": "function"
    },
    {
      "inputs": [
        {
          "internalType": "address",
          "name": "owner",
          "type": "address"
        },
        {
          "internalType": "uint256",
          "name": "index",
          "type": "uint256"
        }
      ],
      "name": "tokenOfOwnerByIndex",
      "outputs": [
        {
          "internalType": "uint256",
          "name": "",
          "type": "uint256"
        }
      ],
      "stateMutability": "view",
      "type": "function"
    },
    {
      "inputs": [
        {
          "internalType": "uint256",
          "name": "tokenId",
          "type": "uint256"
        }
      ],
      "name": "tokenURI",
      "outputs": [
        {
          "internalType": "string",
          "name": "",
          "type": "string"
        }
      ],
      "stateMutability": "view",
      "type": "function"
    },
    {
      "inputs": [],
      "name": "totalSupply",
      "outputs": [
        {
          "internalType": "uint256",
          "name": "",
          "type": "uint256"
        }
      ],
      "stateMutability": "view",
      "type": "function"
    },
    {
      "inputs": [
        {
          "internalType": "address",
          "name": "from",
          "type": "address"
        },
        {
          "internalType": "address",
          "name": "to",
          "type": "address"
        },
        {
          "internalType": "uint256",
          "name": "tokenId",
          "type": "uint256"
        }
      ],
      "name": "transferFrom",
      "outputs": [],
      "stateMutability": "nonpayable",
      "type": "function"
    },
    {
      "inputs": [
        {
          "internalType": "address",
          "name": "newOwner",
          "type": "address"
        }
      ],
      "name": "transferOwnership",
      "outputs": [],
      "stateMutability": "nonpayable",
      "type": "function"
    },
    {
      "inputs": [],
      "name": "withdraw",
      "outputs": [],
      "stateMutability": "payable",
      "type": "function"
    }
  ],
  "bytecode": "0x60806040526000601060006101000a81548160ff0219169083151502179055506000601260006101000a81548160ff02191690831515021790555060405180602001604052806000815250601990816200005a91906200067b565b506001601a60006101000a81548160ff0219169083151502179055506000601a60016101000a81548160ff0219169083151502179055506001601b556064601c556014601d556005601e55348015620000b257600080fd5b50d38015620000c057600080fd5b50d28015620000ce57600080fd5b506040518060400160405280600c81526020017f444944204964656e7469747900000000000000000000000000000000000000008152506040518060400160405280600481526020017f544449440000000000000000000000000000000000000000000000000000000081525081600090816200014c91906200067b565b5080600190816200015e91906200067b565b50505062000181620001756200019860201b60201c565b620001a060201b60201c565b62000192336200026660201b60201c565b6200087d565b600033905090565b6000600d60009054906101000a900473ffffffffffffffffffffffffffffffffffffffff16905081600d60006101000a81548173ffffffffffffffffffffffffffffffffffffffff021916908373ffffffffffffffffffffffffffffffffffffffff1602179055508173ffffffffffffffffffffffffffffffffffffffff168173ffffffffffffffffffffffffffffffffffffffff167f8be0079c531659141344cd1fd0a4f28419497f9722a3daafe3b4186f6b6457e060405160405180910390a35050565b6200028181600e6200028460201b62004b981790919060201c565b50565b6200029682826200033760201b60201c565b15620002d9576040517f08c379a0000000000000000000000000000000000000000000000000000000008152600401620002d090620007c3565b60405180910390fd5b60018260000160008373ffffffffffffffffffffffffffffffffffffffff1673ffffffffffffffffffffffffffffffffffffffff16815260200190815260200160002060006101000a81548160ff0219169083151502179055505050565b60008073ffffffffffffffffffffffffffffffffffffffff168273ffffffffffffffffffffffffffffffffffffffff1603620003aa576040517f08c379a0000000000000000000000000000000000000000000000000000000008152600401620003a1906200085b565b60405180910390fd5b8260000160008373ffffffffffffffffffffffffffffffffffffffff1673ffffffffffffffffffffffffffffffffffffffff16815260200190815260200160002060009054906101000a900460ff16905092915050565b600081519050919050565b7f4e487b7100000000000000000000000000000000000000000000000000000000600052604160045260246000fd5b7f4e487b7100000000000000000000000000000000000000000000000000000000600052602260045260246000fd5b600060028204905060018216806200048357607f821691505b6020821081036200049957620004986200043b565b5b50919050565b60008190508160005260206000209050919050565b60006020601f8301049050919050565b600082821b905092915050565b600060088302620005037fffffffffffffffffffffffffffffffffffffffffffffffffffffffffffffffff82620004c4565b6200050f8683620004c4565b95508019841693508086168417925050509392505050565b6000819050919050565b6000819050919050565b60006200055c62000556620005508462000527565b62000531565b62000527565b9050919050565b6000819050919050565b62000578836200053b565b62000590620005878262000563565b848454620004d1565b825550505050565b600090565b620005a762000598565b620005b48184846200056d565b505050565b5b81811015620005dc57620005d06000826200059d565b600181019050620005ba565b5050565b601f8211156200062b57620005f5816200049f565b6200060084620004b4565b8101602085101562000610578190505b620006286200061f85620004b4565b830182620005b9565b50505b505050565b600082821c905092915050565b6000620006506000198460080262000630565b1980831691505092915050565b60006200066b83836200063d565b9150826002028217905092915050565b620006868262000401565b67ffffffffffffffff811115620006a257620006a16200040c565b5b620006ae82546200046a565b620006bb828285620005e0565b600060209050601f831160018114620006f35760008415620006de578287015190505b620006ea85826200065d565b8655506200075a565b601f19841662000703866200049f565b60005b828110156200072d5784890151825560018201915060208501945060208101905062000706565b868310156200074d578489015162000749601f8916826200063d565b8355505b6001600288020188555050505b505050505050565b600082825260208201905092915050565b7f526f6c65733a206163636f756e7420616c72656164792068617320726f6c6500600082015250565b6000620007ab601f8362000762565b9150620007b88262000773565b602082019050919050565b60006020820190508181036000830152620007de816200079c565b9050919050565b7f526f6c65733a206163636f756e7420697320746865207a65726f20616464726560008201527f7373000000000000000000000000000000000000000000000000000000000000602082015250565b60006200084360228362000762565b91506200085082620007e5565b604082019050919050565b60006020820190508181036000830152620008768162000834565b9050919050565b619e36806200088d6000396000f3fe6080604052600436106104735760003560e01c806369e2f0fb1161024a578063ad59e22611610139578063ce92b33e116100b6578063ec129eea1161007a578063ec129eea146119b7578063f25eb5c1146119fa578063f2fde38b14611a2b578063f5c1f76e14611a6e578063f6283ad414611ac557610473565b8063ce92b33e1461183e578063d439daa214611881578063e5f9da88146118d8578063e985e9c51461192f578063ea7b25be1461198657610473565b8063bc7b6d62116100fd578063bc7b6d62146116c5578063bcba4c1b14611708578063c479a8041461175f578063c7bc6d68146117a2578063c87b56dd146117e757610473565b8063ad59e22614611539578063b3f9e4cb1461157c578063b85afd28146115d3578063b88d4fde1461162b578063bb5b27e11461166e57610473565b80638b39d3af116101c757806398a602431161018b57806398a60243146113d457806398d5fdca14611417578063a22cb4651461145c578063a736868b1461149f578063ab3b87fe146114f657610473565b80638b39d3af1461127f5780638da5cb5b146112c45780638f704aec1461130957806391b7f5ed1461134c57806395d89b411461138f57610473565b806377e9d00b1161020e57806377e9d00b146111085780637ce453831461114b5780637e37479e1461118e5780637ef09bca146111e55780638a4c75771461123c57610473565b806369e2f0fb14610fa35780636e2db8d714610fe657806370a0823114611029578063715018a61461108057806376f909ae146110b157610473565b80633dd1eb61116103665780634f558e79116102e357806355f804b3116102a757806355f804b314610e505780635d893ba014610e935780636352211e14610ed85780636506437014610f2f578063672b9f8114610f4b57610473565b80634f558e7914610cc55780634f6ccce714610d1c57806350382c1a14610d7357806350b3a14414610db6578063559f741414610e0d57610473565b8063434d8aca1161032a578063434d8aca14610b605780634500d44914610bb757806347c8169914610be85780634a72584d14610c2b5780634aaf4a1214610c6e57610473565b80633dd1eb61146109fd578063426932c714610a4057806342842e0e14610a8357806342966c6814610ac6578063430c208114610b0957610473565b80631ed40559116103f45780632f745c59116103b85780632f745c59146108e5578063305c8a871461093c578063310bd74b1461096d578063384e9a55146109b05780633ccfd60b146109f357610473565b80631ed40559146107945780632319afde146107c557806323b872dd1461080857806327f189751461084b5780632dc50d9a1461088e57610473565b8063095ea7b31161043b578063095ea7b3146106075780630bb78ec11461064a57806318160ddd146106a15780631bd8cc1a146106e65780631be5e7ed1461073d57610473565b806301ffc9a7146104785780630302e953146104cf57806305d60ffb1461051457806306fdde031461056b578063081812fc146105b0575b600080fd5b34801561048457600080fd5b50d3801561049157600080fd5b50d2801561049e57600080fd5b506104b960048036038101906104b49190616d72565b611b1c565b6040516104c69190616dba565b60405180910390f35b3480156104db57600080fd5b50d380156104e857600080fd5b50d280156104f557600080fd5b506104fe611b96565b60405161050b9190616dba565b60405180910390f35b34801561052057600080fd5b50d3801561052d57600080fd5b50d2801561053a57600080fd5b5061055560048036038101906105509190616e5f565b611ba9565b6040516105629190616ea5565b60405180910390f35b34801561057757600080fd5b50d3801561058457600080fd5b50d2801561059157600080fd5b5061059a611bc1565b6040516105a79190616f50565b60405180910390f35b3480156105bc57600080fd5b50d380156105c957600080fd5b50d280156105d657600080fd5b506105f160048036038101906105ec9190616f9e565b611c53565b6040516105fe9190616fda565b60405180910390f35b34801561061357600080fd5b50d3801561062057600080fd5b50d2801561062d57600080fd5b5061064860048036038101906106439190616ff5565b611cd8565b005b34801561065657600080fd5b50d3801561066357600080fd5b50d2801561067057600080fd5b5061068b60048036038101906106869190616f9e565b611def565b6040516106989190616f50565b60405180910390f35b3480156106ad57600080fd5b50d380156106ba57600080fd5b50d280156106c757600080fd5b506106d0611e8f565b6040516106dd9190616ea5565b60405180910390f35b3480156106f257600080fd5b50d380156106ff57600080fd5b50d2801561070c57600080fd5b506107276004803603810190610722919061709a565b611e9c565b6040516107349190617206565b60405180910390f35b34801561074957600080fd5b50d3801561075657600080fd5b50d2801561076357600080fd5b5061077e6004803603810190610779919061727e565b611fa9565b60405161078b9190616f50565b60405180910390f35b3480156107a057600080fd5b50d380156107ad57600080fd5b50d280156107ba57600080fd5b506107c3612002565b005b3480156107d157600080fd5b50d380156107de57600080fd5b50d280156107eb57600080fd5b50610806600480360381019061080191906172de565b6120aa565b005b34801561081457600080fd5b50d3801561082157600080fd5b50d2801561082e57600080fd5b506108496004803603810190610844919061732b565b61218e565b005b34801561085757600080fd5b50d3801561086457600080fd5b50d2801561087157600080fd5b5061088c600480360381019061088791906173d4565b6121f7565b005b34801561089a57600080fd5b50d380156108a757600080fd5b50d280156108b457600080fd5b506108cf60048036038101906108ca9190617469565b612227565b6040516108dc9190616ea5565b60405180910390f35b3480156108f157600080fd5b50d380156108fe57600080fd5b50d2801561090b57600080fd5b5061092660048036038101906109219190616ff5565b61226a565b6040516109339190616ea5565b60405180910390f35b34801561094857600080fd5b50d3801561095557600080fd5b50d2801561096257600080fd5b5061096b61230f565b005b34801561097957600080fd5b50d3801561098657600080fd5b50d2801561099357600080fd5b506109ae60048036038101906109a99190616f9e565b6123b7565b005b3480156109bc57600080fd5b50d380156109c957600080fd5b50d280156109d657600080fd5b506109f160048036038101906109ec9190616f9e565b6123df565b005b6109fb61247c565b005b348015610a0957600080fd5b50d38015610a1657600080fd5b50d28015610a2357600080fd5b50610a3e6004803603810190610a399190616e5f565b612538565b005b348015610a4c57600080fd5b50d38015610a5957600080fd5b50d28015610a6657600080fd5b50610a816004803603810190610a7c91906174ff565b6125c0565b005b348015610a8f57600080fd5b50d38015610a9c57600080fd5b50d28015610aa957600080fd5b50610ac46004803603810190610abf919061732b565b61269a565b005b348015610ad257600080fd5b50d38015610adf57600080fd5b50d28015610aec57600080fd5b50610b076004803603810190610b029190616f9e565b6126ba565b005b348015610b1557600080fd5b50d38015610b2257600080fd5b50d28015610b2f57600080fd5b50610b4a6004803603810190610b459190616ff5565b61289d565b604051610b579190616dba565b60405180910390f35b348015610b6c57600080fd5b50d38015610b7957600080fd5b50d28015610b8657600080fd5b50610ba16004803603810190610b9c919061768f565b6128b1565b604051610bae9190616f50565b60405180910390f35b348015610bc357600080fd5b50d38015610bd057600080fd5b50d28015610bdd57600080fd5b50610be6612967565b005b348015610bf457600080fd5b50d38015610c0157600080fd5b50d28015610c0e57600080fd5b50610c296004803603810190610c2491906176d8565b612a0f565b005b348015610c3757600080fd5b50d38015610c4457600080fd5b50d28015610c5157600080fd5b50610c6c6004803603810190610c67919061776d565b612a3f565b005b348015610c7a57600080fd5b50d38015610c8757600080fd5b50d28015610c9457600080fd5b50610caf6004803603810190610caa9190617882565b612a6d565b604051610cbc9190616fda565b60405180910390f35b348015610cd157600080fd5b50d38015610cde57600080fd5b50d28015610ceb57600080fd5b50610d066004803603810190610d019190616f9e565b612abb565b604051610d139190616dba565b60405180910390f35b348015610d2857600080fd5b50d38015610d3557600080fd5b50d28015610d4257600080fd5b50610d5d6004803603810190610d589190616f9e565b612acd565b604051610d6a9190616ea5565b60405180910390f35b348015610d7f57600080fd5b50d38015610d8c57600080fd5b50d28015610d9957600080fd5b50610db46004803603810190610daf9190617882565b612b3e565b005b348015610dc257600080fd5b50d38015610dcf57600080fd5b50d28015610ddc57600080fd5b50610df76004803603810190610df29190617882565b612b74565b604051610e049190616ea5565b60405180910390f35b348015610e1957600080fd5b50d38015610e2657600080fd5b50d28015610e3357600080fd5b50610e4e6004803603810190610e4991906178cb565b612bb4565b005b348015610e5c57600080fd5b50d38015610e6957600080fd5b50d28015610e7657600080fd5b50610e916004803603810190610e8c9190617882565b612c30565b005b348015610e9f57600080fd5b50d38015610eac57600080fd5b50d28015610eb957600080fd5b50610ec2612cbf565b604051610ecf9190616dba565b60405180910390f35b348015610ee457600080fd5b50d38015610ef157600080fd5b50d28015610efe57600080fd5b50610f196004803603810190610f149190616f9e565b612cd2565b604051610f269190616fda565b60405180910390f35b610f496004803603810190610f449190617918565b612d83565b005b348015610f5757600080fd5b50d38015610f6457600080fd5b50d28015610f7157600080fd5b50610f8c6004803603810190610f879190617469565b6133ea565b604051610f9a929190617990565b60405180910390f35b348015610faf57600080fd5b50d38015610fbc57600080fd5b50d28015610fc957600080fd5b50610fe46004803603810190610fdf9190616e5f565b613406565b005b348015610ff257600080fd5b50d38015610fff57600080fd5b50d2801561100c57600080fd5b5061102760048036038101906110229190616ff5565b61348e565b005b34801561103557600080fd5b50d3801561104257600080fd5b50d2801561104f57600080fd5b5061106a60048036038101906110659190616e5f565b61351e565b6040516110779190616ea5565b60405180910390f35b34801561108c57600080fd5b50d3801561109957600080fd5b50d280156110a657600080fd5b506110af6135d5565b005b3480156110bd57600080fd5b50d380156110ca57600080fd5b50d280156110d757600080fd5b506110f260048036038101906110ed9190616f9e565b61365d565b6040516110ff9190616ea5565b60405180910390f35b34801561111457600080fd5b50d3801561112157600080fd5b50d2801561112e57600080fd5b50611149600480360381019061114491906179c7565b613693565b005b34801561115757600080fd5b50d3801561116457600080fd5b50d2801561117157600080fd5b5061118c600480360381019061118791906178cb565b613954565b005b34801561119a57600080fd5b50d380156111a757600080fd5b50d280156111b457600080fd5b506111cf60048036038101906111ca9190616e5f565b6139cc565b6040516111dc9190616f50565b60405180910390f35b3480156111f157600080fd5b50d380156111fe57600080fd5b50d2801561120b57600080fd5b5061122660048036038101906112219190616e5f565b613b42565b6040516112339190616dba565b60405180910390f35b34801561124857600080fd5b50d3801561125557600080fd5b50d2801561126257600080fd5b5061127d60048036038101906112789190616f9e565b613b5f565b005b34801561128b57600080fd5b50d3801561129857600080fd5b50d280156112a557600080fd5b506112ae613bf7565b6040516112bb9190616dba565b60405180910390f35b3480156112d057600080fd5b50d380156112dd57600080fd5b50d280156112ea57600080fd5b506112f3613c0a565b6040516113009190616fda565b60405180910390f35b34801561131557600080fd5b50d3801561132257600080fd5b50d2801561132f57600080fd5b5061134a60048036038101906113459190617a52565b613c34565b005b34801561135857600080fd5b50d3801561136557600080fd5b50d2801561137257600080fd5b5061138d60048036038101906113889190616f9e565b613cca565b005b34801561139b57600080fd5b50d380156113a857600080fd5b50d280156113b557600080fd5b506113be613d50565b6040516113cb9190616f50565b60405180910390f35b3480156113e057600080fd5b50d380156113ed57600080fd5b50d280156113fa57600080fd5b5061141560048036038101906114109190617aa5565b613de2565b005b34801561142357600080fd5b50d3801561143057600080fd5b50d2801561143d57600080fd5b50611446613e1e565b6040516114539190616ea5565b60405180910390f35b34801561146857600080fd5b50d3801561147557600080fd5b50d2801561148257600080fd5b5061149d60048036038101906114989190617b40565b613e28565b005b3480156114ab57600080fd5b50d380156114b857600080fd5b50d280156114c557600080fd5b506114e060048036038101906114db9190616e5f565b613fa8565b6040516114ed9190616ea5565b60405180910390f35b34801561150257600080fd5b50d3801561150f57600080fd5b50d2801561151c57600080fd5b5061153760048036038101906115329190616ff5565b613ff1565b005b34801561154557600080fd5b50d3801561155257600080fd5b50d2801561155f57600080fd5b5061157a60048036038101906115759190617882565b614024565b005b34801561158857600080fd5b50d3801561159557600080fd5b50d280156115a257600080fd5b506115bd60048036038101906115b89190616f9e565b6140d2565b6040516115ca9190616fda565b60405180910390f35b3480156115df57600080fd5b50d380156115ec57600080fd5b50d280156115f957600080fd5b50611614600480360381019061160f9190617b80565b61416a565b604051611622929190617be0565b60405180910390f35b34801561163757600080fd5b50d3801561164457600080fd5b50d2801561165157600080fd5b5061166c60048036038101906116679190617c17565b61429c565b005b34801561167a57600080fd5b50d3801561168757600080fd5b50d2801561169457600080fd5b506116af60048036038101906116aa9190616f9e565b614307565b6040516116bc9190616f50565b60405180910390f35b3480156116d157600080fd5b50d380156116de57600080fd5b50d280156116eb57600080fd5b5061170660048036038101906117019190617c9a565b6143ac565b005b34801561171457600080fd5b50d3801561172157600080fd5b50d2801561172e57600080fd5b5061174960048036038101906117449190616f9e565b6143d6565b6040516117569190617d2f565b60405180910390f35b34801561176b57600080fd5b50d3801561177857600080fd5b50d2801561178557600080fd5b506117a0600480360381019061179b9190617d51565b614476565b005b3480156117ae57600080fd5b50d380156117bb57600080fd5b50d280156117c857600080fd5b506117d16144a0565b6040516117de9190616dba565b60405180910390f35b3480156117f357600080fd5b50d3801561180057600080fd5b50d2801561180d57600080fd5b5061182860048036038101906118239190616f9e565b6144b3565b6040516118359190616f50565b60405180910390f35b34801561184a57600080fd5b50d3801561185757600080fd5b50d2801561186457600080fd5b5061187f600480360381019061187a9190617dad565b61461d565b005b34801561188d57600080fd5b50d3801561189a57600080fd5b50d280156118a757600080fd5b506118c260048036038101906118bd9190616e5f565b61464d565b6040516118cf9190616dba565b60405180910390f35b3480156118e457600080fd5b50d380156118f157600080fd5b50d280156118fe57600080fd5b5061191960048036038101906119149190617882565b614698565b6040516119269190616dba565b60405180910390f35b34801561193b57600080fd5b50d3801561194857600080fd5b50d2801561195557600080fd5b50611970600480360381019061196b9190617e42565b6146e2565b60405161197d9190616dba565b60405180910390f35b34801561199257600080fd5b50d3801561199f57600080fd5b50d280156119ac57600080fd5b506119b5614776565b005b3480156119c357600080fd5b50d380156119d057600080fd5b50d280156119dd57600080fd5b506119f860048036038101906119f39190617dad565b61481e565b005b348015611a0657600080fd5b50d38015611a1357600080fd5b50d28015611a2057600080fd5b50611a2961484e565b005b348015611a3757600080fd5b50d38015611a4457600080fd5b50d28015611a5157600080fd5b50611a6c6004803603810190611a679190616e5f565b614928565b005b348015611a7a57600080fd5b50d38015611a8757600080fd5b50d28015611a9457600080fd5b50611aaf6004803603810190611aaa9190617e82565b614a1f565b604051611abc9190617206565b60405180910390f35b348015611ad157600080fd5b50d38015611ade57600080fd5b50d28015611aeb57600080fd5b50611b066004803603810190611b0191906178cb565b614adc565b604051611b139190616dba565b60405180910390f35b60007f780e9d63000000000000000000000000000000000000000000000000000000007bffffffffffffffffffffffffffffffffffffffffffffffffffffffff1916827bffffffffffffffffffffffffffffffffffffffffffffffffffffffff19161480611b8f5750611b8e82614c40565b5b9050919050565b601a60019054906101000a900460ff1681565b600f6020528060005260406000206000915090505481565b606060008054611bd090617efe565b80601f0160208091040260200160405190810160405280929190818152602001828054611bfc90617efe565b8015611c495780601f10611c1e57610100808354040283529160200191611c49565b820191906000526020600020905b815481529060010190602001808311611c2c57829003601f168201915b5050505050905090565b6000611c5e82614d22565b611c9d576040517f08c379a0000000000000000000000000000000000000000000000000000000008152600401611c9490617fa1565b60405180910390fd5b6004600083815260200190815260200160002060009054906101000a900473ffffffffffffffffffffffffffffffffffffffff169050919050565b6000611ce382612cd2565b90508073ffffffffffffffffffffffffffffffffffffffff168373ffffffffffffffffffffffffffffffffffffffff1603611d53576040517f08c379a0000000000000000000000000000000000000000000000000000000008152600401611d4a90618033565b60405180910390fd5b8073ffffffffffffffffffffffffffffffffffffffff16611d72614d8e565b73ffffffffffffffffffffffffffffffffffffffff161480611da15750611da081611d9b614d8e565b6146e2565b5b611de0576040517f08c379a0000000000000000000000000000000000000000000000000000000008152600401611dd7906180c5565b60405180910390fd5b611dea8383614d96565b505050565b60146020528060005260406000206000915090508054611e0e90617efe565b80601f0160208091040260200160405190810160405280929190818152602001828054611e3a90617efe565b8015611e875780601f10611e5c57610100808354040283529160200191611e87565b820191906000526020600020905b815481529060010190602001808311611e6a57829003601f168201915b505050505081565b6000600880549050905090565b60608383905067ffffffffffffffff811115611ebb57611eba617564565b5b604051908082528060200260200182016040528015611eee57816020015b6060815260200190600190039081611ed95790505b50905060005b84849050811015611fa157611f70858583818110611f1557611f146180e5565b5b9050602002810190611f279190618123565b8080601f016020809104026020016040519081016040528093929190818152602001838380828437600081840152601f19601f8201169050808301925050505050505084614e4f565b828281518110611f8357611f826180e5565b5b60200260200101819052508080611f99906181b5565b915050611ef4565b509392505050565b6060611ff984848080601f016020809104026020016040519081016040528093929190818152602001838380828437600081840152601f19601f8201169050808301925050505050505083614e4f565b90509392505050565b61200a614d8e565b73ffffffffffffffffffffffffffffffffffffffff16612028613c0a565b73ffffffffffffffffffffffffffffffffffffffff161461207e576040517f08c379a000000000000000000000000000000000000000000000000000000000815260040161207590618249565b60405180910390fd5b601a60009054906101000a900460ff1615601a60006101000a81548160ff021916908315150217905550565b6120b333613b42565b6120f2576040517f08c379a00000000000000000000000000000000000000000000000000000000081526004016120e9906182db565b60405180910390fd5b60005b8282905081101561218957828282818110612113576121126180e5565b5b90506020028101906121259190618123565b601185858581811061213a576121396180e5565b5b905060200281019061214c9190618123565b60405161215a92919061832b565b908152602001604051809103902091826121759291906184fb565b508080612181906181b5565b9150506120f5565b505050565b61219f612199614d8e565b82614e8c565b6121de576040517f08c379a00000000000000000000000000000000000000000000000000000000081526004016121d59061863d565b60405180910390fd5b6121e781614f6a565b6121f2838383614fe3565b505050565b80612209612203614d8e565b82614e8c565b61221257600080fd5b61221f868686868661523e565b505050505050565b6000816122338461365d565b1161223d57600080fd5b61226282601360008681526020019081526020016000206152af90919063ffffffff16565b905092915050565b60006122758361351e565b82106122b6576040517f08c379a00000000000000000000000000000000000000000000000000000000081526004016122ad906186cf565b60405180910390fd5b600660008473ffffffffffffffffffffffffffffffffffffffff1673ffffffffffffffffffffffffffffffffffffffff168152602001908152602001600020600083815260200190815260200160002054905092915050565b612317614d8e565b73ffffffffffffffffffffffffffffffffffffffff16612335613c0a565b73ffffffffffffffffffffffffffffffffffffffff161461238b576040517f08c379a000000000000000000000000000000000000000000000000000000000815260040161238290618249565b60405180910390fd5b601060009054906101000a900460ff1615601060006101000a81548160ff021916908315150217905550565b806123c96123c3614d8e565b82614e8c565b6123d257600080fd5b6123db82614f6a565b5050565b60006123e9614d8e565b90506123f58183614e8c565b612434576040517f08c379a000000000000000000000000000000000000000000000000000000000815260040161242b90618761565b60405180910390fd5b81601760008373ffffffffffffffffffffffffffffffffffffffff1673ffffffffffffffffffffffffffffffffffffffff168152602001908152602001600020819055505050565b612484614d8e565b73ffffffffffffffffffffffffffffffffffffffff166124a2613c0a565b73ffffffffffffffffffffffffffffffffffffffff16146124f8576040517f08c379a00000000000000000000000000000000000000000000000000000000081526004016124ef90618249565b60405180910390fd5b3373ffffffffffffffffffffffffffffffffffffffff166108fc479081150290604051600060405180830381858888f1935050505061253657600080fd5b565b612540614d8e565b73ffffffffffffffffffffffffffffffffffffffff1661255e613c0a565b73ffffffffffffffffffffffffffffffffffffffff16146125b4576040517f08c379a00000000000000000000000000000000000000000000000000000000081526004016125ab90618249565b60405180910390fd5b6125bd816152c9565b50565b6125c933613b42565b612608576040517f08c379a00000000000000000000000000000000000000000000000000000000081526004016125ff906182db565b60405180910390fd5b60005b838390508110156126945781600f600086868581811061262e5761262d6180e5565b5b90506020020160208101906126439190616e5f565b73ffffffffffffffffffffffffffffffffffffffff1673ffffffffffffffffffffffffffffffffffffffff16815260200190815260200160002081905550808061268c906181b5565b91505061260b565b50505050565b6126b58383836040518060200160405280600081525061429c565b505050565b6126cb6126c5614d8e565b82614e8c565b61270a576040517f08c379a0000000000000000000000000000000000000000000000000000000008152600401612701906187f3565b60405180910390fd5b600060146000838152602001908152602001600020805461272a90617efe565b905014612751576014600082815260200190815260200160002060006127509190616ca9565b5b60006017600061275f614d8e565b73ffffffffffffffffffffffffffffffffffffffff1673ffffffffffffffffffffffffffffffffffffffff16815260200190815260200160002054146127ea57601760006127ab614d8e565b73ffffffffffffffffffffffffffffffffffffffff1673ffffffffffffffffffffffffffffffffffffffff168152602001908152602001600020600090555b600073ffffffffffffffffffffffffffffffffffffffff166016600083815260200190815260200160002060009054906101000a900473ffffffffffffffffffffffffffffffffffffffff1673ffffffffffffffffffffffffffffffffffffffff1614612888576016600082815260200190815260200160002060006101000a81549073ffffffffffffffffffffffffffffffffffffffff02191690555b61289181614f6a565b61289a816152e0565b50565b60006128a98383614e8c565b905092915050565b60118180516020810182018051848252602083016020850120818352809550505050505060009150905080546128e690617efe565b80601f016020809104026020016040519081016040528092919081815260200182805461291290617efe565b801561295f5780601f106129345761010080835404028352916020019161295f565b820191906000526020600020905b81548152906001019060200180831161294257829003601f168201915b505050505081565b61296f614d8e565b73ffffffffffffffffffffffffffffffffffffffff1661298d613c0a565b73ffffffffffffffffffffffffffffffffffffffff16146129e3576040517f08c379a00000000000000000000000000000000000000000000000000000000081526004016129da90618249565b60405180910390fd5b601a60019054906101000a900460ff1615601a60016101000a81548160ff021916908315150217905550565b80612a21612a1b614d8e565b82614e8c565b612a2a57600080fd5b612a3786868686866153f1565b505050505050565b80612a51612a4b614d8e565b82614e8c565b612a5a57600080fd5b612a668585858561550b565b5050505050565b600080612a79836155b1565b9050600081604051602001612a8e919061884f565b6040516020818303038152906040528051906020012060001c9050612ab281612cd2565b92505050919050565b6000612ac682614d22565b9050919050565b6000612ad7611e8f565b8210612b18576040517f08c379a0000000000000000000000000000000000000000000000000000000008152600401612b0f906188d8565b60405180910390fd5b60088281548110612b2c57612b2b6180e5565b5b90600052602060002001549050919050565b612b7181604051602001612b52919061884f565b6040516020818303038152906040528051906020012060001c82615769565b50565b600080825103612b8357600080fd5b81604051602001612b94919061884f565b6040516020818303038152906040528051906020012060001c9050919050565b612bbd33613b42565b612bfc576040517f08c379a0000000000000000000000000000000000000000000000000000000008152600401612bf3906182db565b60405180910390fd5b818160118484604051612c1092919061832b565b90815260200160405180910390209182612c2b9291906184fb565b505050565b612c38614d8e565b73ffffffffffffffffffffffffffffffffffffffff16612c56613c0a565b73ffffffffffffffffffffffffffffffffffffffff1614612cac576040517f08c379a0000000000000000000000000000000000000000000000000000000008152600401612ca390618249565b60405180910390fd5b8060199081612cbb91906188f8565b5050565b601a60009054906101000a900460ff1681565b6000806002600084815260200190815260200160002060009054906101000a900473ffffffffffffffffffffffffffffffffffffffff169050600073ffffffffffffffffffffffffffffffffffffffff168173ffffffffffffffffffffffffffffffffffffffff1603612d7a576040517f08c379a0000000000000000000000000000000000000000000000000000000008152600401612d7190618a3c565b60405180910390fd5b80915050919050565b601a60009054906101000a900460ff16612dd2576040517f08c379a0000000000000000000000000000000000000000000000000000000008152600401612dc990618aa8565b60405180910390fd5b6000815103612e16576040517f08c379a0000000000000000000000000000000000000000000000000000000008152600401612e0d90618b3a565b60405180910390fd5b60011515612e2382614698565b151514612e65576040517f08c379a0000000000000000000000000000000000000000000000000000000008152600401612e5c90618ba6565b60405180910390fd5b6000612e708361579c565b14612eb0576040517f08c379a0000000000000000000000000000000000000000000000000000000008152600401612ea790618c12565b60405180910390fd5b60008251905060008103612ef9576040517f08c379a0000000000000000000000000000000000000000000000000000000008152600401612ef090618c7e565b60405180910390fd5b6002811015612f3d576040517f08c379a0000000000000000000000000000000000000000000000000000000008152600401612f3490618d10565b60405180910390fd5b60011515601260009054906101000a900460ff16151503613049576000601184604051612f6a9190618d61565b90815260200160405180910390208054612f8390617efe565b80601f0160208091040260200160405190810160405280929190818152602001828054612faf90617efe565b8015612ffc5780601f10612fd157610100808354040283529160200191612ffc565b820191906000526020600020905b815481529060010190602001808311612fdf57829003601f168201915b505050505090506000815114613047576040517f08c379a000000000000000000000000000000000000000000000000000000000815260040161303e90618dc4565b60405180910390fd5b505b60011515601060009054906101000a900460ff16151503613138576000600f60003373ffffffffffffffffffffffffffffffffffffffff1673ffffffffffffffffffffffffffffffffffffffff168152602001908152602001600020549050600081116130eb576040517f08c379a00000000000000000000000000000000000000000000000000000000081526004016130e290618e56565b60405180910390fd5b6130f43361351e565b811015613136576040517f08c379a000000000000000000000000000000000000000000000000000000000815260040161312d90618ee8565b60405180910390fd5b505b600281036131f05760011515601a60019054906101000a900460ff16151514613196576040517f08c379a000000000000000000000000000000000000000000000000000000000815260040161318d90618f7a565b60405180910390fd5b6131ad601c54601b5461580b90919063ffffffff16565b3410156131ef576040517f08c379a00000000000000000000000000000000000000000000000000000000081526004016131e69061900c565b60405180910390fd5b5b600381036132525761320f601d54601b5461580b90919063ffffffff16565b341015613251576040517f08c379a00000000000000000000000000000000000000000000000000000000081526004016132489061900c565b60405180910390fd5b5b600481036132b457613271601e54601b5461580b90919063ffffffff16565b3410156132b3576040517f08c379a00000000000000000000000000000000000000000000000000000000081526004016132aa9061900c565b60405180910390fd5b5b6005811061330257601b54341015613301576040517f08c379a00000000000000000000000000000000000000000000000000000000081526004016132f89061900c565b60405180910390fd5b5b600061330d846155b1565b9050600061331a846155b1565b9050818160405160200161332f929190619078565b6040516020818303038152906040529150600061334b83612b74565b905061335681614d22565b15613396576040517f08c379a000000000000000000000000000000000000000000000000000000000815260040161338d906190f3565b60405180910390fd5b6133a03382615821565b6133aa818461583f565b807fc5beef08f693b11c316c0c8394a377a0033c9cf701b8cd8afd79cecef60c3952846040516133da9190616f50565b60405180910390a2505050505050565b6060806133f784846158ac565b80925081935050509250929050565b61340e614d8e565b73ffffffffffffffffffffffffffffffffffffffff1661342c613c0a565b73ffffffffffffffffffffffffffffffffffffffff1614613482576040517f08c379a000000000000000000000000000000000000000000000000000000000815260040161347990618249565b60405180910390fd5b61348b816158cd565b50565b61349733613b42565b6134d6576040517f08c379a00000000000000000000000000000000000000000000000000000000081526004016134cd906182db565b60405180910390fd5b80600f60008473ffffffffffffffffffffffffffffffffffffffff1673ffffffffffffffffffffffffffffffffffffffff168152602001908152602001600020819055505050565b60008073ffffffffffffffffffffffffffffffffffffffff168273ffffffffffffffffffffffffffffffffffffffff160361358e576040517f08c379a000000000000000000000000000000000000000000000000000000000815260040161358590619185565b60405180910390fd5b600360008373ffffffffffffffffffffffffffffffffffffffff1673ffffffffffffffffffffffffffffffffffffffff168152602001908152602001600020549050919050565b6135dd614d8e565b73ffffffffffffffffffffffffffffffffffffffff166135fb613c0a565b73ffffffffffffffffffffffffffffffffffffffff1614613651576040517f08c379a000000000000000000000000000000000000000000000000000000000815260040161364890618249565b60405180910390fd5b61365b60006158e4565b565b600061366882614d22565b61367157600080fd5b61368c601360008481526020019081526020016000206159aa565b9050919050565b61369c33613b42565b6136db576040517f08c379a00000000000000000000000000000000000000000000000000000000081526004016136d2906182db565b60405180910390fd5b600073ffffffffffffffffffffffffffffffffffffffff168373ffffffffffffffffffffffffffffffffffffffff160361374a576040517f08c379a0000000000000000000000000000000000000000000000000000000008152600401613741906191f1565b60405180910390fd5b600081510361378e576040517f08c379a000000000000000000000000000000000000000000000000000000000815260040161378590618b3a565b60405180910390fd5b6001151561379b82614698565b1515146137dd576040517f08c379a00000000000000000000000000000000000000000000000000000000081526004016137d490618ba6565b60405180910390fd5b6000825103613821576040517f08c379a000000000000000000000000000000000000000000000000000000000815260040161381890618c7e565b60405180910390fd5b600061382c8361579c565b1461386c576040517f08c379a00000000000000000000000000000000000000000000000000000000081526004016138639061925d565b60405180910390fd5b6000613877836155b1565b90506000613884836155b1565b90508181604051602001613899929190619078565b604051602081830303815290604052915060006138b583612b74565b90506138c081614d22565b15613900576040517f08c379a00000000000000000000000000000000000000000000000000000000081526004016138f7906190f3565b60405180910390fd5b61390a8682615821565b613914818461583f565b807fc5beef08f693b11c316c0c8394a377a0033c9cf701b8cd8afd79cecef60c3952846040516139449190616f50565b60405180910390a2505050505050565b61395d33613b42565b61399c576040517f08c379a0000000000000000000000000000000000000000000000000000000008152600401613993906182db565b60405180910390fd5b601182826040516139ae92919061832b565b908152602001604051809103902060006139c89190616ca9565b5050565b60606000601760008473ffffffffffffffffffffffffffffffffffffffff1673ffffffffffffffffffffffffffffffffffffffff16815260200190815260200160002054905060008103613a55576040517f08c379a0000000000000000000000000000000000000000000000000000000008152600401613a4c906192ef565b60405180910390fd5b613a5f8382614e8c565b613a9e576040517f08c379a0000000000000000000000000000000000000000000000000000000008152600401613a9590619381565b60405180910390fd5b601460008281526020019081526020016000208054613abc90617efe565b80601f0160208091040260200160405190810160405280929190818152602001828054613ae890617efe565b8015613b355780601f10613b0a57610100808354040283529160200191613b35565b820191906000526020600020905b815481529060010190602001808311613b1857829003601f168201915b5050505050915050919050565b6000613b5882600e6159bf90919063ffffffff16565b9050919050565b80613b71613b6b614d8e565b82614e8c565b613b7a57600080fd5b60008203613bbd576040517f08c379a0000000000000000000000000000000000000000000000000000000008152600401613bb4906192ef565b60405180910390fd5b6016600083815260200190815260200160002060006101000a81549073ffffffffffffffffffffffffffffffffffffffff02191690555050565b601060009054906101000a900460ff1681565b6000600d60009054906101000a900473ffffffffffffffffffffffffffffffffffffffff16905090565b613c3c614d8e565b73ffffffffffffffffffffffffffffffffffffffff16613c5a613c0a565b73ffffffffffffffffffffffffffffffffffffffff1614613cb0576040517f08c379a0000000000000000000000000000000000000000000000000000000008152600401613ca790618249565b60405180910390fd5b82601c8190555081601d8190555080601e81905550505050565b613cd2614d8e565b73ffffffffffffffffffffffffffffffffffffffff16613cf0613c0a565b73ffffffffffffffffffffffffffffffffffffffff1614613d46576040517f08c379a0000000000000000000000000000000000000000000000000000000008152600401613d3d90618249565b60405180910390fd5b80601b8190555050565b606060018054613d5f90617efe565b80601f0160208091040260200160405190810160405280929190818152602001828054613d8b90617efe565b8015613dd85780601f10613dad57610100808354040283529160200191613dd8565b820191906000526020600020905b815481529060010190602001808311613dbb57829003601f168201915b5050505050905090565b81613df4613dee614d8e565b82614e8c565b613dfd57600080fd5b613e1884848460405180602001604052806000815250615a86565b50505050565b6000601b54905090565b613e30614d8e565b73ffffffffffffffffffffffffffffffffffffffff168273ffffffffffffffffffffffffffffffffffffffff1603613e9d576040517f08c379a0000000000000000000000000000000000000000000000000000000008152600401613e94906193ed565b60405180910390fd5b8060056000613eaa614d8e565b73ffffffffffffffffffffffffffffffffffffffff1673ffffffffffffffffffffffffffffffffffffffff16815260200190815260200160002060008473ffffffffffffffffffffffffffffffffffffffff1673ffffffffffffffffffffffffffffffffffffffff16815260200190815260200160002060006101000a81548160ff0219169083151502179055508173ffffffffffffffffffffffffffffffffffffffff16613f57614d8e565b73ffffffffffffffffffffffffffffffffffffffff167f17307eab39ab6107e8899845ad3d59bd9653f200f220920489ca2b5937696c3183604051613f9c9190616dba565b60405180910390a35050565b6000600f60008373ffffffffffffffffffffffffffffffffffffffff1673ffffffffffffffffffffffffffffffffffffffff168152602001908152602001600020549050919050565b80614003613ffd614d8e565b82614e8c565b61400c57600080fd5b61401f61401883612cd2565b8484614fe3565b505050565b61402c614d8e565b73ffffffffffffffffffffffffffffffffffffffff1661404a613c0a565b73ffffffffffffffffffffffffffffffffffffffff16146140a0576040517f08c379a000000000000000000000000000000000000000000000000000000000815260040161409790618249565b60405180910390fd5b60006140ab82612b74565b9050816018600083815260200190815260200160002090816140cd91906188f8565b505050565b60008015156140e083614d22565b1515036140f05760009050614165565b60006016600084815260200190815260200160002060009054906101000a900473ffffffffffffffffffffffffffffffffffffffff169050600073ffffffffffffffffffffffffffffffffffffffff168173ffffffffffffffffffffffffffffffffffffffff1603614160573090505b809150505b919050565b6060808484905067ffffffffffffffff81111561418a57614189617564565b5b6040519080825280602002602001820160405280156141bd57816020015b60608152602001906001900390816141a85790505b5091508484905067ffffffffffffffff8111156141dd576141dc617564565b5b60405190808252806020026020018201604052801561421057816020015b60608152602001906001900390816141fb5790505b50905060005b8585905081101561429357614244868683818110614237576142366180e5565b5b90506020020135856158ac565b848381518110614257576142566180e5565b5b60200260200101848481518110614271576142706180e5565b5b602002602001018290528290525050808061428b906181b5565b915050614216565b50935093915050565b6142ad6142a7614d8e565b83614e8c565b6142ec576040517f08c379a00000000000000000000000000000000000000000000000000000000081526004016142e39061863d565b60405180910390fd5b6142f582614f6a565b61430184848484615c8d565b50505050565b6060600a6000838152602001908152602001600020805461432790617efe565b80601f016020809104026020016040519081016040528092919081815260200182805461435390617efe565b80156143a05780601f10614375576101008083540402835291602001916143a0565b820191906000526020600020905b81548152906001019060200180831161438357829003601f168201915b50505050509050919050565b816143be6143b8614d8e565b82614e8c565b6143c757600080fd5b6143d18383615ce9565b505050565b601560205280600052604060002060009150905080546143f590617efe565b80601f016020809104026020016040519081016040528092919081815260200182805461442190617efe565b801561446e5780601f106144435761010080835404028352916020019161446e565b820191906000526020600020905b81548152906001019060200180831161445157829003601f168201915b505050505081565b81614488614482614d8e565b82614e8c565b61449157600080fd5b61449b8383615d51565b505050565b601260009054906101000a900460ff1681565b60606144be82614d22565b6144fd576040517f08c379a00000000000000000000000000000000000000000000000000000000081526004016144f49061947f565b60405180910390fd5b600060146000848152602001908152602001600020805461451d90617efe565b80601f016020809104026020016040519081016040528092919081815260200182805461454990617efe565b80156145965780601f1061456b57610100808354040283529160200191614596565b820191906000526020600020905b81548152906001019060200180831161457957829003601f168201915b5050505050905060006145a7615e20565b905060008151036145bc578192505050614618565b6000825111156145f15780826040516020016145d992919061949f565b60405160208183030381529060405292505050614618565b80846040516020016146049291906194e4565b604051602081830303815290604052925050505b919050565b8061462f614629614d8e565b82614e8c565b61463857600080fd5b6146458686868686615eb2565b505050505050565b600080600f60008473ffffffffffffffffffffffffffffffffffffffff1673ffffffffffffffffffffffffffffffffffffffff16815260200190815260200160002054119050919050565b6000806000905060006146aa84612b74565b905060006018600083815260200190815260200160002080546146cc90617efe565b9050146146d857600191505b8192505050919050565b6000600560008473ffffffffffffffffffffffffffffffffffffffff1673ffffffffffffffffffffffffffffffffffffffff16815260200190815260200160002060008373ffffffffffffffffffffffffffffffffffffffff1673ffffffffffffffffffffffffffffffffffffffff16815260200190815260200160002060009054906101000a900460ff16905092915050565b61477e614d8e565b73ffffffffffffffffffffffffffffffffffffffff1661479c613c0a565b73ffffffffffffffffffffffffffffffffffffffff16146147f2576040517f08c379a00000000000000000000000000000000000000000000000000000000081526004016147e990618249565b60405180910390fd5b601260009054906101000a900460ff1615601260006101000a81548160ff021916908315150217905550565b8061483061482a614d8e565b82614e8c565b61483957600080fd5b6148468686868686615f2e565b505050505050565b6000614858614d8e565b90506000601760008373ffffffffffffffffffffffffffffffffffffffff1673ffffffffffffffffffffffffffffffffffffffff168152602001908152602001600020549050600081036148e1576040517f08c379a00000000000000000000000000000000000000000000000000000000081526004016148d8906192ef565b60405180910390fd5b601760008373ffffffffffffffffffffffffffffffffffffffff1673ffffffffffffffffffffffffffffffffffffffff168152602001908152602001600020600090555050565b614930614d8e565b73ffffffffffffffffffffffffffffffffffffffff1661494e613c0a565b73ffffffffffffffffffffffffffffffffffffffff16146149a4576040517f08c379a000000000000000000000000000000000000000000000000000000000815260040161499b90618249565b60405180910390fd5b600073ffffffffffffffffffffffffffffffffffffffff168173ffffffffffffffffffffffffffffffffffffffff1603614a13576040517f08c379a0000000000000000000000000000000000000000000000000000000008152600401614a0a9061957e565b60405180910390fd5b614a1c816158e4565b50565b60608282905067ffffffffffffffff811115614a3e57614a3d617564565b5b604051908082528060200260200182016040528015614a7157816020015b6060815260200190600190039081614a5c5790505b50905060005b83839050811015614ad557614aa4848483818110614a9857614a976180e5565b5b90506020020135614307565b828281518110614ab757614ab66180e5565b5b60200260200101819052508080614acd906181b5565b915050614a77565b5092915050565b60008060118484604051614af192919061832b565b90815260200160405180910390208054614b0a90617efe565b80601f0160208091040260200160405190810160405280929190818152602001828054614b3690617efe565b8015614b835780601f10614b5857610100808354040283529160200191614b83565b820191906000526020600020905b815481529060010190602001808311614b6657829003601f168201915b50505050509050600081511191505092915050565b614ba282826159bf565b15614be2576040517f08c379a0000000000000000000000000000000000000000000000000000000008152600401614bd9906195ea565b60405180910390fd5b60018260000160008373ffffffffffffffffffffffffffffffffffffffff1673ffffffffffffffffffffffffffffffffffffffff16815260200190815260200160002060006101000a81548160ff0219169083151502179055505050565b60007f80ac58cd000000000000000000000000000000000000000000000000000000007bffffffffffffffffffffffffffffffffffffffffffffffffffffffff1916827bffffffffffffffffffffffffffffffffffffffffffffffffffffffff19161480614d0b57507f5b5e139f000000000000000000000000000000000000000000000000000000007bffffffffffffffffffffffffffffffffffffffffffffffffffffffff1916827bffffffffffffffffffffffffffffffffffffffffffffffffffffffff1916145b80614d1b5750614d1a82615f4b565b5b9050919050565b60008073ffffffffffffffffffffffffffffffffffffffff166002600084815260200190815260200160002060009054906101000a900473ffffffffffffffffffffffffffffffffffffffff1673ffffffffffffffffffffffffffffffffffffffff1614159050919050565b600033905090565b816004600083815260200190815260200160002060006101000a81548173ffffffffffffffffffffffffffffffffffffffff021916908373ffffffffffffffffffffffffffffffffffffffff160217905550808273ffffffffffffffffffffffffffffffffffffffff16614e0983612cd2565b73ffffffffffffffffffffffffffffffffffffffff167f8c5be1e5ebec7d5bd14f71427d1e84f3dd0314c0f7b2291e5b200ac8c7c3b92560405160405180910390a45050565b6060614e8483604051602001614e65919061884f565b6040516020818303038152906040528051906020012060001c83615fb5565b905092915050565b6000614e9782614d22565b614ed6576040517f08c379a0000000000000000000000000000000000000000000000000000000008152600401614ecd9061967c565b60405180910390fd5b6000614ee183612cd2565b90508073ffffffffffffffffffffffffffffffffffffffff168473ffffffffffffffffffffffffffffffffffffffff161480614f5057508373ffffffffffffffffffffffffffffffffffffffff16614f3884611c53565b73ffffffffffffffffffffffffffffffffffffffff16145b80614f615750614f6081856146e2565b5b91505092915050565b614f7381616074565b604051602001614f83919061969c565b6040516020818303038152906040528051906020012060001c600c600083815260200190815260200160002081905550807f185c30856dadb58bf097c1f665a52ada7029752dbcad008ea3fefc73bee8c9fe60405160405180910390a250565b8273ffffffffffffffffffffffffffffffffffffffff1661500382612cd2565b73ffffffffffffffffffffffffffffffffffffffff1614615059576040517f08c379a000000000000000000000000000000000000000000000000000000000815260040161505090619729565b60405180910390fd5b600073ffffffffffffffffffffffffffffffffffffffff168273ffffffffffffffffffffffffffffffffffffffff16036150c8576040517f08c379a00000000000000000000000000000000000000000000000000000000081526004016150bf906197bb565b60405180910390fd5b6150d38383836160b2565b6150de600082614d96565b6001600360008573ffffffffffffffffffffffffffffffffffffffff1673ffffffffffffffffffffffffffffffffffffffff168152602001908152602001600020600082825461512e91906197db565b925050819055506001600360008473ffffffffffffffffffffffffffffffffffffffff1673ffffffffffffffffffffffffffffffffffffffff1681526020019081526020016000206000828254615185919061980f565b92505081905550816002600083815260200190815260200160002060006101000a81548173ffffffffffffffffffffffffffffffffffffffff021916908373ffffffffffffffffffffffffffffffffffffffff160217905550808273ffffffffffffffffffffffffffffffffffffffff168473ffffffffffffffffffffffffffffffffffffffff167fddf252ad1be2c89b69c2b068fc378daa952ba7f163c4a11628f55a4df523b3ef60405160405180910390a4505050565b60005b858590508110156152a757615294868683818110615262576152616180e5565b5b9050602002013585858481811061527c5761527b6180e5565b5b905060200281019061528e9190618123565b8561550b565b808061529f906181b5565b915050615241565b505050505050565b60006152be83600001836161c4565b60001c905092915050565b6152dd81600e614b9890919063ffffffff16565b50565b60006152eb82612cd2565b90506152f9816000846160b2565b615304600083614d96565b6001600360008373ffffffffffffffffffffffffffffffffffffffff1673ffffffffffffffffffffffffffffffffffffffff168152602001908152602001600020600082825461535491906197db565b925050819055506002600083815260200190815260200160002060006101000a81549073ffffffffffffffffffffffffffffffffffffffff021916905581600073ffffffffffffffffffffffffffffffffffffffff168273ffffffffffffffffffffffffffffffffffffffff167fddf252ad1be2c89b69c2b068fc378daa952ba7f163c4a11628f55a4df523b3ef60405160405180910390a45050565b60008585604051602001615406929190619868565b6040516020818303038152906040528051906020012060001c905061546f8187878080601f016020809104026020016040519081016040528093929190818152602001838380828437600081840152601f19601f82011690508083019250505050505050615769565b6155038187878080601f016020809104026020016040519081016040528093929190818152602001838380828437600081840152601f19601f8201169050808301925050505050505086868080601f016020809104026020016040519081016040528093929190818152602001838380828437600081840152601f19601f82011690508083019250505050505050856161ef565b505050505050565b61551484616324565b615553576040517f08c379a000000000000000000000000000000000000000000000000000000000815260040161554a906198cd565b60405180910390fd5b6155ab8461556086614307565b85858080601f016020809104026020016040519081016040528093929190818152602001838380828437600081840152601f19601f82011690508083019250505050505050846161ef565b50505050565b606060008290506000815167ffffffffffffffff8111156155d5576155d4617564565b5b6040519080825280601f01601f1916602001820160405280156156075781602001600182028036833780820191505090505b50905060005b825181101561575e57604183828151811061562b5761562a6180e5565b5b602001015160f81c60f81b60f81c60ff161015801561566e5750605a83828151811061565a576156596180e5565b5b602001015160f81c60f81b60f81c60ff1611155b156156ea576020838281518110615688576156876180e5565b5b602001015160f81c60f81b60f81c6156a091906198fa565b60f81b8282815181106156b6576156b56180e5565b5b60200101907effffffffffffffffffffffffffffffffffffffffffffffffffffffffffffff1916908160001a90535061574b565b8281815181106156fd576156fc6180e5565b5b602001015160f81c60f81b82828151811061571b5761571a6180e5565b5b60200101907effffffffffffffffffffffffffffffffffffffffffffffffffffffffffffff1916908160001a9053505b8080615756906181b5565b91505061560d565b508092505050919050565b61577282616324565b6157985780600a6000848152602001908152602001600020908161579691906188f8565b505b5050565b600080806001840191508184510190506000805b828410156157ff57600060ff8551169050602e8160ff16036157dc576001836157d9919061980f565b92505b6001856157e9919061980f565b94505080806157f7906181b5565b9150506157b0565b81945050505050919050565b60008183615819919061992f565b905092915050565b61583b82826040518060200160405280600081525061634f565b5050565b61584882614d22565b615887576040517f08c379a000000000000000000000000000000000000000000000000000000000815260040161587e906199e3565b60405180910390fd5b806014600084815260200190815260200160002090816158a791906188f8565b505050565b6060806158b884614307565b91506158c48484615fb5565b90509250929050565b6158e181600e6163aa90919063ffffffff16565b50565b6000600d60009054906101000a900473ffffffffffffffffffffffffffffffffffffffff16905081600d60006101000a81548173ffffffffffffffffffffffffffffffffffffffff021916908373ffffffffffffffffffffffffffffffffffffffff1602179055508173ffffffffffffffffffffffffffffffffffffffff168173ffffffffffffffffffffffffffffffffffffffff167f8be0079c531659141344cd1fd0a4f28419497f9722a3daafe3b4186f6b6457e060405160405180910390a35050565b60006159b882600001616451565b9050919050565b60008073ffffffffffffffffffffffffffffffffffffffff168273ffffffffffffffffffffffffffffffffffffffff1603615a2f576040517f08c379a0000000000000000000000000000000000000000000000000000000008152600401615a2690619a75565b60405180910390fd5b8260000160008373ffffffffffffffffffffffffffffffffffffffff1673ffffffffffffffffffffffffffffffffffffffff16815260200190815260200160002060009054906101000a900460ff16905092915050565b600073ffffffffffffffffffffffffffffffffffffffff168473ffffffffffffffffffffffffffffffffffffffff1603615abf57600080fd5b6000825103615acd57600080fd5b6000615ad88361579c565b14615ae257600080fd5b615aeb83614d22565b615af457600080fd5b6000615aff836155b1565b905060008160146000878152602001908152602001600020604051602001615b28929190619b18565b60405160208183030381529060405290506000615b4482612b74565b90506000615bec601460008981526020019081526020016000208054615b6990617efe565b80601f0160208091040260200160405190810160405280929190818152602001828054615b9590617efe565b8015615be25780601f10615bb757610100808354040283529160200191615be2565b820191906000526020600020905b815481529060010190602001808311615bc557829003601f168201915b505050505061579c565b905060018103615c1d57615c1b82601360008a815260200190815260200160002061646290919063ffffffff16565b505b6000855114615c3657615c3188838761634f565b615c41565b615c408883615821565b5b615c4b828461583f565b817fc5beef08f693b11c316c0c8394a377a0033c9cf701b8cd8afd79cecef60c395284604051615c7b9190616f50565b60405180910390a25050505050505050565b615c98848484614fe3565b615ca48484848461647c565b615ce3576040517f08c379a0000000000000000000000000000000000000000000000000000000008152600401615cda90619bb9565b60405180910390fd5b50505050565b615cf282614d22565b615cfb57600080fd5b806016600084815260200190815260200160002060006101000a81548173ffffffffffffffffffffffffffffffffffffffff021916908373ffffffffffffffffffffffffffffffffffffffff1602179055505050565b6000615d5c826155b1565b905060008160146000868152602001908152602001600020604051602001615d85929190619b18565b60405160208183030381529060405290506000615da182612b74565b9050615dc881601360008881526020019081526020016000206165ed90919063ffffffff16565b506000601460008381526020019081526020016000208054615de990617efe565b905014615e1057601460008281526020019081526020016000206000615e0f9190616ca9565b5b615e19816152e0565b5050505050565b606060198054615e2f90617efe565b80601f0160208091040260200160405190810160405280929190818152602001828054615e5b90617efe565b8015615ea85780601f10615e7d57610100808354040283529160200191615ea8565b820191906000526020600020905b815481529060010190602001808311615e8b57829003601f168201915b5050505050905090565b60005b85859050811015615f2657615f13868683818110615ed657615ed56180e5565b5b9050602002810190615ee89190618123565b868685818110615efb57615efa6180e5565b5b9050602002810190615f0d9190618123565b866153f1565b8080615f1e906181b5565b915050615eb5565b505050505050565b615f3781614f6a565b615f448585858585615eb2565b5050505050565b60007f01ffc9a7000000000000000000000000000000000000000000000000000000007bffffffffffffffffffffffffffffffffffffffffffffffffffffffff1916827bffffffffffffffffffffffffffffffffffffffffffffffffffffffff1916149050919050565b6060600b6000615fc484616074565b815260200190815260200160002060008481526020019081526020016000208054615fee90617efe565b80601f016020809104026020016040519081016040528092919081815260200182805461601a90617efe565b80156160675780601f1061603c57610100808354040283529160200191616067565b820191906000526020600020905b81548152906001019060200180831161604a57829003601f168201915b5050505050905092915050565b600080600c600084815260200190815260200160002054146160a957600c6000838152602001908152602001600020546160ab565b815b9050919050565b6160bd838383616607565b600073ffffffffffffffffffffffffffffffffffffffff168373ffffffffffffffffffffffffffffffffffffffff16036160ff576160fa8161660c565b61613e565b8173ffffffffffffffffffffffffffffffffffffffff168373ffffffffffffffffffffffffffffffffffffffff161461613d5761613c8382616655565b5b5b600073ffffffffffffffffffffffffffffffffffffffff168273ffffffffffffffffffffffffffffffffffffffff16036161805761617b816167c2565b6161bf565b8273ffffffffffffffffffffffffffffffffffffffff168273ffffffffffffffffffffffffffffffffffffffff16146161be576161bd8282616893565b5b5b505050565b60008260000182815481106161dc576161db6180e5565b5b9060005260206000200154905092915050565b6000600b60006161fe84616074565b81526020019081526020016000206000868152602001908152602001600020805461622890617efe565b90500361627e578260405161623d919061884f565b6040518091039020817f7ae4f661958fbecc2f77be6b0eb280d2a6f604b29e1e7221c82b9da0c4af7f86856040516162759190616f50565b60405180910390a35b81600b600061628c84616074565b8152602001908152602001600020600086815260200190815260200160002090816162b791906188f8565b50816040516162c6919061884f565b6040518091039020836040516162dc919061884f565b6040518091039020827f851ffe8e74d5015261dba0a1f9e1b0e5d42c5af5d2ad1908fee897c7d80a0d928686604051616316929190617990565b60405180910390a450505050565b600080600a6000848152602001908152602001600020805461634590617efe565b9050119050919050565b6163598383616912565b616366600084848461647c565b6163a5576040517f08c379a000000000000000000000000000000000000000000000000000000000815260040161639c90619bb9565b60405180910390fd5b505050565b6163b482826159bf565b6163f3576040517f08c379a00000000000000000000000000000000000000000000000000000000081526004016163ea90619c4b565b60405180910390fd5b60008260000160008373ffffffffffffffffffffffffffffffffffffffff1673ffffffffffffffffffffffffffffffffffffffff16815260200190815260200160002060006101000a81548160ff0219169083151502179055505050565b600081600001805490509050919050565b6000616474836000018360001b616adf565b905092915050565b600061648784616b4f565b156165e0578373ffffffffffffffffffffffffffffffffffffffff16635175f8786164b0614d8e565b8786866040518563ffffffff1660e01b81526004016164d29493929190619c6b565b6020604051808303816000875af192505050801561650e57506040513d601f19601f8201168201806040525081019061650b9190619ccc565b60015b616590573d806000811461653e576040519150601f19603f3d011682016040523d82523d6000602084013e616543565b606091505b506000815103616588576040517f08c379a000000000000000000000000000000000000000000000000000000000815260040161657f90619bb9565b60405180910390fd5b805181602001fd5b635175f87860e01b7bffffffffffffffffffffffffffffffffffffffffffffffffffffffff1916817bffffffffffffffffffffffffffffffffffffffffffffffffffffffff1916149150506165e5565b600190505b949350505050565b60006165ff836000018360001b616b72565b905092915050565b505050565b6008805490506009600083815260200190815260200160002081905550600881908060018154018082558091505060019003906000526020600020016000909190919091505550565b600060016166628461351e565b61666c91906197db565b9050600060076000848152602001908152602001600020549050818114616751576000600660008673ffffffffffffffffffffffffffffffffffffffff1673ffffffffffffffffffffffffffffffffffffffff168152602001908152602001600020600084815260200190815260200160002054905080600660008773ffffffffffffffffffffffffffffffffffffffff1673ffffffffffffffffffffffffffffffffffffffff168152602001908152602001600020600084815260200190815260200160002081905550816007600083815260200190815260200160002081905550505b6007600084815260200190815260200160002060009055600660008573ffffffffffffffffffffffffffffffffffffffff1673ffffffffffffffffffffffffffffffffffffffff16815260200190815260200160002060008381526020019081526020016000206000905550505050565b600060016008805490506167d691906197db565b9050600060096000848152602001908152602001600020549050600060088381548110616806576168056180e5565b5b906000526020600020015490508060088381548110616828576168276180e5565b5b90600052602060002001819055508160096000838152602001908152602001600020819055506009600085815260200190815260200160002060009055600880548061687757616876619cf9565b5b6001900381819060005260206000200160009055905550505050565b600061689e8361351e565b905081600660008573ffffffffffffffffffffffffffffffffffffffff1673ffffffffffffffffffffffffffffffffffffffff168152602001908152602001600020600083815260200190815260200160002081905550806007600084815260200190815260200160002081905550505050565b600073ffffffffffffffffffffffffffffffffffffffff168273ffffffffffffffffffffffffffffffffffffffff1603616981576040517f08c379a000000000000000000000000000000000000000000000000000000000815260040161697890619d74565b60405180910390fd5b61698a81614d22565b156169ca576040517f08c379a00000000000000000000000000000000000000000000000000000000081526004016169c190619de0565b60405180910390fd5b6169d6600083836160b2565b6001600360008473ffffffffffffffffffffffffffffffffffffffff1673ffffffffffffffffffffffffffffffffffffffff1681526020019081526020016000206000828254616a26919061980f565b92505081905550816002600083815260200190815260200160002060006101000a81548173ffffffffffffffffffffffffffffffffffffffff021916908373ffffffffffffffffffffffffffffffffffffffff160217905550808273ffffffffffffffffffffffffffffffffffffffff16600073ffffffffffffffffffffffffffffffffffffffff167fddf252ad1be2c89b69c2b068fc378daa952ba7f163c4a11628f55a4df523b3ef60405160405180910390a45050565b6000616aeb8383616c86565b616b44578260000182908060018154018082558091505060019003906000526020600020016000909190919091505582600001805490508360010160008481526020019081526020016000208190555060019050616b49565b600090505b92915050565b6000808273ffffffffffffffffffffffffffffffffffffffff163b119050919050565b60008083600101600084815260200190815260200160002054905060008114616c7a576000600182616ba491906197db565b9050600060018660000180549050616bbc91906197db565b9050818114616c2b576000866000018281548110616bdd57616bdc6180e5565b5b9060005260206000200154905080876000018481548110616c0157616c006180e5565b5b90600052602060002001819055508387600101600083815260200190815260200160002081905550505b85600001805480616c3f57616c3e619cf9565b5b600190038181906000526020600020016000905590558560010160008681526020019081526020016000206000905560019350505050616c80565b60009150505b92915050565b600080836001016000848152602001908152602001600020541415905092915050565b508054616cb590617efe565b6000825580601f10616cc75750616ce6565b601f016020900490600052602060002090810190616ce59190616ce9565b5b50565b5b80821115616d02576000816000905550600101616cea565b5090565b6000604051905090565b600080fd5b600080fd5b60007fffffffff0000000000000000000000000000000000000000000000000000000082169050919050565b616d4f81616d1a565b8114616d5a57600080fd5b50565b600081359050616d6c81616d46565b92915050565b600060208284031215616d8857616d87616d10565b5b6000616d9684828501616d5d565b91505092915050565b60008115159050919050565b616db481616d9f565b82525050565b6000602082019050616dcf6000830184616dab565b92915050565b600074ffffffffffffffffffffffffffffffffffffffffff82169050919050565b616dff81616dd5565b8114616e0a57600080fd5b50565b600073ffffffffffffffffffffffffffffffffffffffff82169050919050565b6000616e3882616e0d565b9050919050565b600081359050616e4e81616df6565b616e5781616e2d565b905092915050565b600060208284031215616e7557616e74616d10565b5b6000616e8384828501616e3f565b91505092915050565b6000819050919050565b616e9f81616e8c565b82525050565b6000602082019050616eba6000830184616e96565b92915050565b600081519050919050565b600082825260208201905092915050565b60005b83811015616efa578082015181840152602081019050616edf565b60008484015250505050565b6000601f19601f8301169050919050565b6000616f2282616ec0565b616f2c8185616ecb565b9350616f3c818560208601616edc565b616f4581616f06565b840191505092915050565b60006020820190508181036000830152616f6a8184616f17565b905092915050565b616f7b81616e8c565b8114616f8657600080fd5b50565b600081359050616f9881616f72565b92915050565b600060208284031215616fb457616fb3616d10565b5b6000616fc284828501616f89565b91505092915050565b616fd481616e2d565b82525050565b6000602082019050616fef6000830184616fcb565b92915050565b6000806040838503121561700c5761700b616d10565b5b600061701a85828601616e3f565b925050602061702b85828601616f89565b9150509250929050565b600080fd5b600080fd5b600080fd5b60008083601f84011261705a57617059617035565b5b8235905067ffffffffffffffff8111156170775761707661703a565b5b6020830191508360208202830111156170935761709261703f565b5b9250929050565b6000806000604084860312156170b3576170b2616d10565b5b600084013567ffffffffffffffff8111156170d1576170d0616d15565b5b6170dd86828701617044565b935093505060206170f086828701616f89565b9150509250925092565b600081519050919050565b600082825260208201905092915050565b6000819050602082019050919050565b600082825260208201905092915050565b600061714282616ec0565b61714c8185617126565b935061715c818560208601616edc565b61716581616f06565b840191505092915050565b600061717c8383617137565b905092915050565b6000602082019050919050565b600061719c826170fa565b6171a68185617105565b9350836020820285016171b885617116565b8060005b858110156171f457848403895281516171d58582617170565b94506171e083617184565b925060208a019950506001810190506171bc565b50829750879550505050505092915050565b600060208201905081810360008301526172208184617191565b905092915050565b60008083601f84011261723e5761723d617035565b5b8235905067ffffffffffffffff81111561725b5761725a61703a565b5b6020830191508360018202830111156172775761727661703f565b5b9250929050565b60008060006040848603121561729757617296616d10565b5b600084013567ffffffffffffffff8111156172b5576172b4616d15565b5b6172c186828701617228565b935093505060206172d486828701616f89565b9150509250925092565b600080602083850312156172f5576172f4616d10565b5b600083013567ffffffffffffffff81111561731357617312616d15565b5b61731f85828601617044565b92509250509250929050565b60008060006060848603121561734457617343616d10565b5b600061735286828701616e3f565b935050602061736386828701616e3f565b925050604061737486828701616f89565b9150509250925092565b60008083601f84011261739457617393617035565b5b8235905067ffffffffffffffff8111156173b1576173b061703a565b5b6020830191508360208202830111156173cd576173cc61703f565b5b9250929050565b6000806000806000606086880312156173f0576173ef616d10565b5b600086013567ffffffffffffffff81111561740e5761740d616d15565b5b61741a8882890161737e565b9550955050602086013567ffffffffffffffff81111561743d5761743c616d15565b5b61744988828901617044565b9350935050604061745c88828901616f89565b9150509295509295909350565b600080604083850312156174805761747f616d10565b5b600061748e85828601616f89565b925050602061749f85828601616f89565b9150509250929050565b60008083601f8401126174bf576174be617035565b5b8235905067ffffffffffffffff8111156174dc576174db61703a565b5b6020830191508360208202830111156174f8576174f761703f565b5b9250929050565b60008060006040848603121561751857617517616d10565b5b600084013567ffffffffffffffff81111561753657617535616d15565b5b617542868287016174a9565b9350935050602061755586828701616f89565b9150509250925092565b600080fd5b7f4e487b7100000000000000000000000000000000000000000000000000000000600052604160045260246000fd5b61759c82616f06565b810181811067ffffffffffffffff821117156175bb576175ba617564565b5b80604052505050565b60006175ce616d06565b90506175da8282617593565b919050565b600067ffffffffffffffff8211156175fa576175f9617564565b5b61760382616f06565b9050602081019050919050565b82818337600083830152505050565b600061763261762d846175df565b6175c4565b90508281526020810184848401111561764e5761764d61755f565b5b617659848285617610565b509392505050565b600082601f83011261767657617675617035565b5b813561768684826020860161761f565b91505092915050565b6000602082840312156176a5576176a4616d10565b5b600082013567ffffffffffffffff8111156176c3576176c2616d15565b5b6176cf84828501617661565b91505092915050565b6000806000806000606086880312156176f4576176f3616d10565b5b600086013567ffffffffffffffff81111561771257617711616d15565b5b61771e88828901617228565b9550955050602086013567ffffffffffffffff81111561774157617740616d15565b5b61774d88828901617228565b9350935050604061776088828901616f89565b9150509295509295909350565b6000806000806060858703121561778757617786616d10565b5b600061779587828801616f89565b945050602085013567ffffffffffffffff8111156177b6576177b5616d15565b5b6177c287828801617228565b935093505060406177d587828801616f89565b91505092959194509250565b600067ffffffffffffffff8211156177fc576177fb617564565b5b61780582616f06565b9050602081019050919050565b6000617825617820846177e1565b6175c4565b9050828152602081018484840111156178415761784061755f565b5b61784c848285617610565b509392505050565b600082601f83011261786957617868617035565b5b8135617879848260208601617812565b91505092915050565b60006020828403121561789857617897616d10565b5b600082013567ffffffffffffffff8111156178b6576178b5616d15565b5b6178c284828501617854565b91505092915050565b600080602083850312156178e2576178e1616d10565b5b600083013567ffffffffffffffff811115617900576178ff616d15565b5b61790c85828601617228565b92509250509250929050565b6000806040838503121561792f5761792e616d10565b5b600083013567ffffffffffffffff81111561794d5761794c616d15565b5b61795985828601617854565b925050602083013567ffffffffffffffff81111561797a57617979616d15565b5b61798685828601617854565b9150509250929050565b600060408201905081810360008301526179aa8185616f17565b905081810360208301526179be8184616f17565b90509392505050565b6000806000606084860312156179e0576179df616d10565b5b60006179ee86828701616e3f565b935050602084013567ffffffffffffffff811115617a0f57617a0e616d15565b5b617a1b86828701617854565b925050604084013567ffffffffffffffff811115617a3c57617a3b616d15565b5b617a4886828701617854565b9150509250925092565b600080600060608486031215617a6b57617a6a616d10565b5b6000617a7986828701616f89565b9350506020617a8a86828701616f89565b9250506040617a9b86828701616f89565b9150509250925092565b600080600060608486031215617abe57617abd616d10565b5b6000617acc86828701616e3f565b9350506020617add86828701616f89565b925050604084013567ffffffffffffffff811115617afe57617afd616d15565b5b617b0a86828701617854565b9150509250925092565b617b1d81616d9f565b8114617b2857600080fd5b50565b600081359050617b3a81617b14565b92915050565b60008060408385031215617b5757617b56616d10565b5b6000617b6585828601616e3f565b9250506020617b7685828601617b2b565b9150509250929050565b600080600060408486031215617b9957617b98616d10565b5b600084013567ffffffffffffffff811115617bb757617bb6616d15565b5b617bc38682870161737e565b93509350506020617bd686828701616f89565b9150509250925092565b60006040820190508181036000830152617bfa8185617191565b90508181036020830152617c0e8184617191565b90509392505050565b60008060008060808587031215617c3157617c30616d10565b5b6000617c3f87828801616e3f565b9450506020617c5087828801616e3f565b9350506040617c6187828801616f89565b925050606085013567ffffffffffffffff811115617c8257617c81616d15565b5b617c8e87828801617661565b91505092959194509250565b60008060408385031215617cb157617cb0616d10565b5b6000617cbf85828601616f89565b9250506020617cd085828601616e3f565b9150509250929050565b600081519050919050565b600082825260208201905092915050565b6000617d0182617cda565b617d0b8185617ce5565b9350617d1b818560208601616edc565b617d2481616f06565b840191505092915050565b60006020820190508181036000830152617d498184617cf6565b905092915050565b60008060408385031215617d6857617d67616d10565b5b6000617d7685828601616f89565b925050602083013567ffffffffffffffff811115617d9757617d96616d15565b5b617da385828601617854565b9150509250929050565b600080600080600060608688031215617dc957617dc8616d10565b5b600086013567ffffffffffffffff811115617de757617de6616d15565b5b617df388828901617044565b9550955050602086013567ffffffffffffffff811115617e1657617e15616d15565b5b617e2288828901617044565b93509350506040617e3588828901616f89565b9150509295509295909350565b60008060408385031215617e5957617e58616d10565b5b6000617e6785828601616e3f565b9250506020617e7885828601616e3f565b9150509250929050565b60008060208385031215617e9957617e98616d10565b5b600083013567ffffffffffffffff811115617eb757617eb6616d15565b5b617ec38582860161737e565b92509250509250929050565b7f4e487b7100000000000000000000000000000000000000000000000000000000600052602260045260246000fd5b60006002820490506001821680617f1657607f821691505b602082108103617f2957617f28617ecf565b5b50919050565b7f5452433732313a20617070726f76656420717565727920666f72206e6f6e657860008201527f697374656e7420746f6b656e0000000000000000000000000000000000000000602082015250565b6000617f8b602c83616ecb565b9150617f9682617f2f565b604082019050919050565b60006020820190508181036000830152617fba81617f7e565b9050919050565b7f5452433732313a20617070726f76616c20746f2063757272656e74206f776e6560008201527f7200000000000000000000000000000000000000000000000000000000000000602082015250565b600061801d602183616ecb565b915061802882617fc1565b604082019050919050565b6000602082019050818103600083015261804c81618010565b9050919050565b7f5452433732313a20617070726f76652063616c6c6572206973206e6f74206f7760008201527f6e6572206e6f7220617070726f76656420666f7220616c6c0000000000000000602082015250565b60006180af603883616ecb565b91506180ba82618053565b604082019050919050565b600060208201905081810360008301526180de816180a2565b9050919050565b7f4e487b7100000000000000000000000000000000000000000000000000000000600052603260045260246000fd5b600080fd5b600080fd5b600080fd5b600080833560016020038436030381126181405761813f618114565b5b80840192508235915067ffffffffffffffff82111561816257618161618119565b5b60208301925060018202360383131561817e5761817d61811e565b5b509250929050565b7f4e487b7100000000000000000000000000000000000000000000000000000000600052601160045260246000fd5b60006181c082616e8c565b91507fffffffffffffffffffffffffffffffffffffffffffffffffffffffffffffffff82036181f2576181f1618186565b5b600182019050919050565b7f4f776e61626c653a2063616c6c6572206973206e6f7420746865206f776e6572600082015250565b6000618233602083616ecb565b915061823e826181fd565b602082019050919050565b6000602082019050818103600083015261826281618226565b9050919050565b7f41646d696e436f6e74726f6c3a2073656e646572206d75737420686173206d6960008201527f6e74696e6720726f6c6500000000000000000000000000000000000000000000602082015250565b60006182c5602a83616ecb565b91506182d082618269565b604082019050919050565b600060208201905081810360008301526182f4816182b8565b9050919050565b600081905092915050565b600061831283856182fb565b935061831f838584617610565b82840190509392505050565b6000618338828486618306565b91508190509392505050565b600082905092915050565b60008190508160005260206000209050919050565b60006020601f8301049050919050565b600082821b905092915050565b6000600883026183b17fffffffffffffffffffffffffffffffffffffffffffffffffffffffffffffffff82618374565b6183bb8683618374565b95508019841693508086168417925050509392505050565b6000819050919050565b60006183f86183f36183ee84616e8c565b6183d3565b616e8c565b9050919050565b6000819050919050565b618412836183dd565b61842661841e826183ff565b848454618381565b825550505050565b600090565b61843b61842e565b618446818484618409565b505050565b5b8181101561846a5761845f600082618433565b60018101905061844c565b5050565b601f8211156184af576184808161834f565b61848984618364565b81016020851015618498578190505b6184ac6184a485618364565b83018261844b565b50505b505050565b600082821c905092915050565b60006184d2600019846008026184b4565b1980831691505092915050565b60006184eb83836184c1565b9150826002028217905092915050565b6185058383618344565b67ffffffffffffffff81111561851e5761851d617564565b5b6185288254617efe565b61853382828561846e565b6000601f8311600181146185625760008415618550578287013590505b61855a85826184df565b8655506185c2565b601f1984166185708661834f565b60005b8281101561859857848901358255600182019150602085019450602081019050618573565b868310156185b557848901356185b1601f8916826184c1565b8355505b6001600288020188555050505b50505050505050565b7f5452433732313a207472616e736665722063616c6c6572206973206e6f74206f60008201527f776e6572206e6f7220617070726f766564000000000000000000000000000000602082015250565b6000618627603183616ecb565b9150618632826185cb565b604082019050919050565b600060208201905081810360008301526186568161861a565b9050919050565b7f545243373231456e756d657261626c653a206f776e657220696e646578206f7560008201527f74206f6620626f756e6473000000000000000000000000000000000000000000602082015250565b60006186b9602b83616ecb565b91506186c48261865d565b604082019050919050565b600060208201905081810360008301526186e8816186ac565b9050919050565b7f526576657273655265736f6c7665723a2053454e4445525f49535f4e4f545f4160008201527f5050524f5645445f4f525f4f574e455200000000000000000000000000000000602082015250565b600061874b603083616ecb565b9150618756826186ef565b604082019050919050565b6000602082019050818103600083015261877a8161873e565b9050919050565b7f5452433732314275726e61626c653a2063616c6c6572206973206e6f74206f7760008201527f6e6572206e6f7220617070726f76656400000000000000000000000000000000602082015250565b60006187dd603083616ecb565b91506187e882618781565b604082019050919050565b6000602082019050818103600083015261880c816187d0565b9050919050565b600081905092915050565b600061882982616ec0565b6188338185618813565b9350618843818560208601616edc565b80840191505092915050565b600061885b828461881e565b915081905092915050565b7f545243373231456e756d657261626c653a20676c6f62616c20696e646578206f60008201527f7574206f6620626f756e64730000000000000000000000000000000000000000602082015250565b60006188c2602c83616ecb565b91506188cd82618866565b604082019050919050565b600060208201905081810360008301526188f1816188b5565b9050919050565b61890182616ec0565b67ffffffffffffffff81111561891a57618919617564565b5b6189248254617efe565b61892f82828561846e565b600060209050601f8311600181146189625760008415618950578287015190505b61895a85826184df565b8655506189c2565b601f1984166189708661834f565b60005b8281101561899857848901518255600182019150602085019450602081019050618973565b868310156189b557848901516189b1601f8916826184c1565b8355505b6001600288020188555050505b505050505050565b7f5452433732313a206f776e657220717565727920666f72206e6f6e657869737460008201527f656e7420746f6b656e0000000000000000000000000000000000000000000000602082015250565b6000618a26602983616ecb565b9150618a31826189ca565b604082019050919050565b60006020820190508181036000830152618a5581618a19565b9050919050565b7f53616c65206d7573742062652061637469766520746f20627579000000000000600082015250565b6000618a92601a83616ecb565b9150618a9d82618a5c565b602082019050919050565b60006020820190508181036000830152618ac181618a85565b9050919050565b7f546f70206c6576656c20646f6d61696e206d757374206265206e6f6e2d656d7060008201527f7479000000000000000000000000000000000000000000000000000000000000602082015250565b6000618b24602283616ecb565b9150618b2f82618ac8565b604082019050919050565b60006020820190508181036000830152618b5381618b17565b9050919050565b7f546f70206c6576656c20646f6d61696e206e6f74206578697374000000000000600082015250565b6000618b90601a83616ecb565b9150618b9b82618b5a565b602082019050919050565b60006020820190508181036000830152618bbf81618b83565b9050919050565b7f446f6d61696e732063616e6e6f7420636f6e7461696e20646f74000000000000600082015250565b6000618bfc601a83616ecb565b9150618c0782618bc6565b602082019050919050565b60006020820190508181036000830152618c2b81618bef565b9050919050565b7f446f6d61696e206d757374206265206e6f6e2d656d7074790000000000000000600082015250565b6000618c68601883616ecb565b9150618c7382618c32565b602082019050919050565b60006020820190508181036000830152618c9781618c5b565b9050919050565b7f446f6d61696e207265717569726573206174206c65617374203220636861726160008201527f6374657273000000000000000000000000000000000000000000000000000000602082015250565b6000618cfa602583616ecb565b9150618d0582618c9e565b604082019050919050565b60006020820190508181036000830152618d2981618ced565b9050919050565b6000618d3b82617cda565b618d4581856182fb565b9350618d55818560208601616edc565b80840191505092915050565b6000618d6d8284618d30565b915081905092915050565b7f54686973206e616d6520697320616c7265616479207265736572766564000000600082015250565b6000618dae601d83616ecb565b9150618db982618d78565b602082019050919050565b60006020820190508181036000830152618ddd81618da1565b9050919050565b7f5468652061646472657373206973206e6f7420696e207468652057686974656c60008201527f6973740000000000000000000000000000000000000000000000000000000000602082015250565b6000618e40602383616ecb565b9150618e4b82618de4565b604082019050919050565b60006020820190508181036000830152618e6f81618e33565b9050919050565b7f4578636565646564206d617820617661696c61626c6520746f2070757263686160008201527f7365000000000000000000000000000000000000000000000000000000000000602082015250565b6000618ed2602283616ecb565b9150618edd82618e76565b604082019050919050565b60006020820190508181036000830152618f0181618ec5565b9050919050565b7f322043686172616374657220646f6d61696e206e616d6573206e65656420746f60008201527f20626520616c6c6f77656420746f206275790000000000000000000000000000602082015250565b6000618f64603283616ecb565b9150618f6f82618f08565b604082019050919050565b60006020820190508181036000830152618f9381618f57565b9050919050565b7f496e73756666696369656e7420546f6b656e206f7220546f6b656e2076616c7560008201527f652073656e74206973206e6f7420636f72726563740000000000000000000000602082015250565b6000618ff6603583616ecb565b915061900182618f9a565b604082019050919050565b6000602082019050818103600083015261902581618fe9565b9050919050565b7f2e00000000000000000000000000000000000000000000000000000000000000600082015250565b6000619062600183618813565b915061906d8261902c565b600182019050919050565b6000619084828561881e565b915061908f82619055565b915061909b828461881e565b91508190509392505050565b7f446f6d61696e20616c7265616479206578697374730000000000000000000000600082015250565b60006190dd601583616ecb565b91506190e8826190a7565b602082019050919050565b6000602082019050818103600083015261910c816190d0565b9050919050565b7f5452433732313a2062616c616e636520717565727920666f7220746865207a6560008201527f726f206164647265737300000000000000000000000000000000000000000000602082015250565b600061916f602a83616ecb565b915061917a82619113565b604082019050919050565b6000602082019050818103600083015261919e81619162565b9050919050565b7f546f2061646472657373206973206e756c6c0000000000000000000000000000600082015250565b60006191db601283616ecb565b91506191e6826191a5565b602082019050919050565b6000602082019050818103600083015261920a816191ce565b9050919050565b7f446f6d61696e206e6f7420737570706f72740000000000000000000000000000600082015250565b6000619247601283616ecb565b915061925282619211565b602082019050919050565b600060208201905081810360008301526192768161923a565b9050919050565b7f526576657273655265736f6c7665723a20524556455253455f5245434f52445f60008201527f49535f454d505459000000000000000000000000000000000000000000000000602082015250565b60006192d9602883616ecb565b91506192e48261927d565b604082019050919050565b60006020820190508181036000830152619308816192cc565b9050919050565b7f526576657273655265736f6c7665723a204143434f554e545f49535f4e4f545f60008201527f415050524f5645445f4f525f4f574e4552000000000000000000000000000000602082015250565b600061936b603183616ecb565b91506193768261930f565b604082019050919050565b6000602082019050818103600083015261939a8161935e565b9050919050565b7f5452433732313a20617070726f766520746f2063616c6c657200000000000000600082015250565b60006193d7601983616ecb565b91506193e2826193a1565b602082019050919050565b60006020820190508181036000830152619406816193ca565b9050919050565b7f5452433732314d657461646174613a2055524920717565727920666f72206e6f60008201527f6e6578697374656e7420746f6b656e0000000000000000000000000000000000602082015250565b6000619469602f83616ecb565b91506194748261940d565b604082019050919050565b600060208201905081810360008301526194988161945c565b9050919050565b60006194ab828561881e565b91506194b7828461881e565b91508190509392505050565b6000819050919050565b6194de6194d982616e8c565b6194c3565b82525050565b60006194f0828561881e565b91506194fc82846194cd565b6020820191508190509392505050565b7f4f776e61626c653a206e6577206f776e657220697320746865207a65726f206160008201527f6464726573730000000000000000000000000000000000000000000000000000602082015250565b6000619568602683616ecb565b91506195738261950c565b604082019050919050565b600060208201905081810360008301526195978161955b565b9050919050565b7f526f6c65733a206163636f756e7420616c72656164792068617320726f6c6500600082015250565b60006195d4601f83616ecb565b91506195df8261959e565b602082019050919050565b60006020820190508181036000830152619603816195c7565b9050919050565b7f5452433732313a206f70657261746f7220717565727920666f72206e6f6e657860008201527f697374656e7420746f6b656e0000000000000000000000000000000000000000602082015250565b6000619666602c83616ecb565b91506196718261960a565b604082019050919050565b6000602082019050818103600083015261969581619659565b9050919050565b60006196a882846194cd565b60208201915081905092915050565b7f5452433732313a207472616e73666572206f6620746f6b656e2074686174206960008201527f73206e6f74206f776e0000000000000000000000000000000000000000000000602082015250565b6000619713602983616ecb565b915061971e826196b7565b604082019050919050565b6000602082019050818103600083015261974281619706565b9050919050565b7f5452433732313a207472616e7366657220746f20746865207a65726f2061646460008201527f7265737300000000000000000000000000000000000000000000000000000000602082015250565b60006197a5602483616ecb565b91506197b082619749565b604082019050919050565b600060208201905081810360008301526197d481619798565b9050919050565b60006197e682616e8c565b91506197f183616e8c565b925082820390508181111561980957619808618186565b5b92915050565b600061981a82616e8c565b915061982583616e8c565b925082820190508082111561983d5761983c618186565b5b92915050565b600061984f8385618813565b935061985c838584617610565b82840190509392505050565b6000619875828486619843565b91508190509392505050565b7f5265636f726453746f726167653a204b45595f4e4f545f464f554e4400000000600082015250565b60006198b7601c83616ecb565b91506198c282619881565b602082019050919050565b600060208201905081810360008301526198e6816198aa565b9050919050565b600060ff82169050919050565b6000619905826198ed565b9150619910836198ed565b9250828201905060ff81111561992957619928618186565b5b92915050565b600061993a82616e8c565b915061994583616e8c565b925082820261995381616e8c565b9150828204841483151761996a57619969618186565b5b5092915050565b7f5452433732314d657461646174613a2055524920736574206f66206e6f6e657860008201527f697374656e7420746f6b656e0000000000000000000000000000000000000000602082015250565b60006199cd602c83616ecb565b91506199d882619971565b604082019050919050565b600060208201905081810360008301526199fc816199c0565b9050919050565b7f526f6c65733a206163636f756e7420697320746865207a65726f20616464726560008201527f7373000000000000000000000000000000000000000000000000000000000000602082015250565b6000619a5f602283616ecb565b9150619a6a82619a03565b604082019050919050565b60006020820190508181036000830152619a8e81619a52565b9050919050565b60008154619aa281617efe565b619aac8186618813565b94506001821660008114619ac75760018114619adc57619b0f565b60ff1983168652811515820286019350619b0f565b619ae58561834f565b60005b83811015619b0757815481890152600182019150602081019050619ae8565b838801955050505b50505092915050565b6000619b24828561881e565b9150619b2f82619055565b9150619b3b8284619a95565b91508190509392505050565b7f5452433732313a207472616e7366657220746f206e6f6e20545243373231526560008201527f63656976657220696d706c656d656e7465720000000000000000000000000000602082015250565b6000619ba3603283616ecb565b9150619bae82619b47565b604082019050919050565b60006020820190508181036000830152619bd281619b96565b9050919050565b7f526f6c65733a206163636f756e7420646f6573206e6f74206861766520726f6c60008201527f6500000000000000000000000000000000000000000000000000000000000000602082015250565b6000619c35602183616ecb565b9150619c4082619bd9565b604082019050919050565b60006020820190508181036000830152619c6481619c28565b9050919050565b6000608082019050619c806000830187616fcb565b619c8d6020830186616fcb565b619c9a6040830185616e96565b8181036060830152619cac8184617cf6565b905095945050505050565b600081519050619cc681616d46565b92915050565b600060208284031215619ce257619ce1616d10565b5b6000619cf084828501619cb7565b91505092915050565b7f4e487b7100000000000000000000000000000000000000000000000000000000600052603160045260246000fd5b7f5452433732313a206d696e7420746f20746865207a65726f2061646472657373600082015250565b6000619d5e602083616ecb565b9150619d6982619d28565b602082019050919050565b60006020820190508181036000830152619d8d81619d51565b9050919050565b7f5452433732313a20746f6b656e20616c7265616479206d696e74656400000000600082015250565b6000619dca601c83616ecb565b9150619dd582619d94565b602082019050919050565b60006020820190508181036000830152619df981619dbd565b905091905056fea26474726f6e582212200a5648844ce3d065c095a14a83ac6a71970960d6d87baa33681002343a7fa14064736f6c63430008120033",
  "source": "//SPDX-License-Identifier:MIT\n\npragma solidity ^0.8.17;\n\nimport {TRC721} from \"./TRC721.sol\";\nimport {ITRC721} from \"./interfaces/ITRC721.sol\";\nimport {TRC721Enumerable} from \"./TRC721Enumerable.sol\";\nimport {EnumerableSet} from \"./EnumerableSet.sol\";\nimport {RecordStorage} from \"./RecordStorage.sol\";\nimport {WhiteList} from \"./WhiteList.sol\";\nimport {BookingList} from \"./BookingList.sol\";\nimport {SafeMath} from \"./libraries/SafeMath.sol\";\nimport {StringUtil} from \"./libraries/StringUtil.sol\";\n\n\ncontract TWS is TRC721Enumerable, RecordStorage, WhiteList, BookingList\n{\n\tusing SafeMath for uint256;\n\t \n\tusing EnumerableSet for EnumerableSet.UintSet;  \n\t\n\tevent NewURI(uint256 indexed tokenId, string tokenUri);\n\t\t\n\tmapping (uint256 => EnumerableSet.UintSet) private _subTokens;\n\n\tmapping (uint256 => string) public _tokenURIs;\n\t\n\tmapping(uint256 => bytes) public _nativeAddress;\n\t\n\tmapping (uint256 => address) internal _tokenResolvers;\n\t\n\tmapping(address => uint256) private _tokenReverses;\n\n    mapping(uint256 => string) private _tlds;\n\t\n\tstring private _nftBaseURI = \"\";\n\t\n\tbool public _saleIsActive = true;\n\t\n\tbool public _saleTwoCharIsActive = false;\n\n\tuint256 private _price = 1;\n\t\n\tuint256 private _2chartimes = 100;\n\t\n\tuint256 private _3chartimes = 20;\n\t\n\tuint256 private _4chartimes = 5;\n\t\n    modifier onlyApprovedOrOwner(uint256 tokenId) {\n        require(\n            _isApprovedOrOwner(_msgSender(), tokenId)\n        );\n        _;\n    }\n\t\n\tconstructor() TRC721(\"DID Identity\", \"TDID\") {\n\t\t\n\t}\n\t\n    function isApprovedOrOwner(address account, uint256 tokenId) external view returns(bool)  {\n        return _isApprovedOrOwner(account, tokenId);\n    }\n\t\n\t\n\tfunction getOwner(string memory domain) external view returns (address)  {\n\t\tstring memory _domain = StringUtil.toLower(domain);\n\t    uint256 tokenId = uint256(keccak256(abi.encodePacked(_domain)));\n        return ownerOf(tokenId);\n    }\n\t\t\n\tfunction exists(uint256 tokenId) external view returns (bool) {\n        return _exists(tokenId);\n    }\n\n\n\tfunction getPrice() public view returns (uint256) {\n        return _price;\n    }\n\t\n\tfunction setTimes(uint256 _2chartimenew, uint256 _3chartimenew, uint256 _4chartimenew) public onlyOwner {\n\t\t_2chartimes = _2chartimenew;\n        _3chartimes = _3chartimenew;\n\t\t_4chartimes = _4chartimenew;\n    }\n\t\n\tfunction setPrice(uint256 price) public onlyOwner {\n        _price = price;\n    }\n\t\n\tfunction setSaleStateTwoChar() public onlyOwner {\n        _saleTwoCharIsActive = !_saleTwoCharIsActive;\n    }\n\t\n\tfunction setTLD(string memory _tld) public onlyOwner {\n        uint256 tokenId = genTokenId(_tld);\n\t\t_tlds[tokenId] = _tld;\n    }\n\t\n\tfunction isTLD(string memory _tld) public view returns (bool) {\n\t\tbool isExist = false;\n        uint256 tokenId = genTokenId(_tld);\n\t\tif (bytes(_tlds[tokenId]).length != 0){\n            isExist = true;\n        }\n\t\treturn isExist;\n\t}\n\t\n\tfunction setSaleState() public onlyOwner {\n        _saleIsActive = !_saleIsActive;\n    }\n\t\n\tfunction _baseURI() internal view override returns (string memory) {\n        return _nftBaseURI;\n    }\n    \n    function setBaseURI(string memory _uri) external onlyOwner {\n        _nftBaseURI = _uri;\n    }\n\t\n\tfunction tokenURI(uint256 tokenId) public view override returns (string memory) {\n        require(_exists(tokenId), \"TRC721Metadata: URI query for nonexistent token\");\n\n        string memory _tokenURI = _tokenURIs[tokenId];\n\n        // If there is no base URI, return the token URI.\n\t\tstring memory baseURI = _baseURI();\n        if (bytes(baseURI).length == 0) {\n            return _tokenURI;\n        }\n        // If both are set, concatenate the baseURI and tokenURI (via abi.encodePacked).\n        if (bytes(_tokenURI).length > 0) {\n            return string(abi.encodePacked(baseURI, _tokenURI));\n        }\n        // If there is a baseURI but no tokenURI, concatenate the tokenID to the baseURI.\n        return string(abi.encodePacked(baseURI, tokenId));\n    }\n\n\tfunction _setTokenURI(uint256 tokenId, string memory _tokenURI) internal virtual {\n        require(_exists(tokenId), \"TRC721Metadata: URI set of nonexistent token\");\n        _tokenURIs[tokenId] = _tokenURI;\n    }\n\t\n\n\tfunction buyDomain(string memory domain, string memory tld) external payable \n\t{\n\t\trequire(_saleIsActive, \"Sale must be active to buy\");\n\t\t\n\t\trequire(bytes(tld).length != 0, \"Top level domain must be non-empty\");\n\t\t\n\t\trequire(isTLD(tld) == true, \"Top level domain not exist\");\n\t\t\n\t\trequire(StringUtil.dotCount(domain) == 0, \"Domains cannot contain dot\");\n\t\t\n\t\tuint256 _length = bytes(domain).length;\n\t\t\n\t\trequire(_length != 0, \"Domain must be non-empty\");\t\n\t\t\n\t\trequire(_length >= 2, \"Domain requires at least 2 characters\");\t\n\t\t\n\t\t  // Check BookingList\n\t\tif (_isBookingListActive == true){\n\t\t\tstring memory name = _bookingList[bytes(domain)];\n\t\t\trequire(bytes(name).length == 0, \"This name is already reserved\");\n\t\t}\n\t\t\n\t\t\n\t    // Check WhiteList\n\t\tif (_isWhiteListActive == true){\n\t\t\tuint256 numbers = _whiteList[msg.sender];\n\t\t\trequire(numbers > 0, \"The address is not in the Whitelist\");\n\t\t\trequire(numbers >= balanceOf(msg.sender), \"Exceeded max available to purchase\");\n\t\t}\n\t\t\n\t\tif (_length == 2)\n\t\t{\n\t\t\trequire(_saleTwoCharIsActive == true, \"2 Character domain names need to be allowed to buy\");\n\t\t\t\n\t\t\trequire(msg.value >= _price.mul(_2chartimes), \"Insufficient Token or Token value sent is not correct\");\n\t\t}\n\t\n\t\tif (_length == 3)\n\t\t{\n\t\t\trequire(msg.value >= _price.mul(_3chartimes), \"Insufficient Token or Token value sent is not correct\");\n\t\t}\n\t\t\n\t\tif (_length == 4)\n\t\t{\n\t\t\trequire(msg.value >= _price.mul(_4chartimes), \"Insufficient Token or Token value sent is not correct\");\n\t\t}\n\t\t\n\t\tif (_length >= 5)\n\t\t{\n\t\t\trequire(msg.value >= _price, \"Insufficient Token or Token value sent is not correct\");\n\t\t}\n\t\t\n\t\tstring memory _domain = StringUtil.toLower(domain);\n\t\t\n\t\tstring memory _tld = StringUtil.toLower(tld);\n\t\t\n\t\t_domain = string(abi.encodePacked(_domain, \".\", _tld));\n\t\t\n\t\tuint256 tokenId = genTokenId(_domain);\n\t\t\n\t\trequire (!_exists(tokenId), \"Domain already exists\");\n\t\t\n\t   _safeMint(msg.sender, tokenId);\n\t   \n\t   _setTokenURI(tokenId, _domain);\n\t   \n\t   emit NewURI(tokenId, _domain);\n    }\n\n\tfunction registerDomain(address to, string memory domain, string memory tld) external onlyMinterController \n\t{\n\t\trequire(to != address(0), \"To address is null\");\n\t\t\n\t\trequire(bytes(tld).length != 0, \"Top level domain must be non-empty\");\n\t\t\n\t\trequire(isTLD(tld) == true, \"Top level domain not exist\");\n\t\t\n\t\trequire(bytes(domain).length != 0, \"Domain must be non-empty\");\t\n\t\t\n\t\trequire(StringUtil.dotCount(domain) == 0, \"Domain not support\");\n\n\t\tstring memory _domain = StringUtil.toLower(domain);\n\n\t\tstring memory _tld = StringUtil.toLower(tld);\n\t\t\n\t\t_domain = string(abi.encodePacked(_domain, \".\", _tld));\n\n\t\tuint256 tokenId = genTokenId(_domain);\n\t\t\n\t\trequire (!_exists(tokenId), \"Domain already exists\");\n\t\t\n       _safeMint(to, tokenId);\n\t   \n\t   _setTokenURI(tokenId, _domain);\n\t   \n\t   emit NewURI(tokenId, _domain);\n    }\n\n\tfunction transferFrom(\n        address from,\n        address to,\n        uint256 tokenId\n    ) public virtual override(ITRC721,TRC721) {\n\n        require(_isApprovedOrOwner(_msgSender(), tokenId), \"TRC721: transfer caller is not owner nor approved\");\n\t\t\n\t\t_reset(tokenId);\n\t\t\n        _transfer(from, to, tokenId);\n    }\n\n    function safeTransferFrom(\n        address from,\n        address to,\n        uint256 tokenId\n    ) public virtual override(ITRC721,TRC721) {\n        safeTransferFrom(from, to, tokenId, \"\");\n    }\n\n\n    function safeTransferFrom(\n        address from,\n        address to,\n        uint256 tokenId,\n        bytes memory _data\n    ) public virtual override(ITRC721,TRC721){\n        require(_isApprovedOrOwner(_msgSender(), tokenId), \"TRC721: transfer caller is not owner nor approved\");\n\t\t\n\t\t_reset(tokenId);\n\t\t\n        _safeTransfer(from, to, tokenId, _data);\n    }\n\t\t\n\tfunction burn(uint256 tokenId) public virtual {\n        require(_isApprovedOrOwner(_msgSender(), tokenId), \"TRC721Burnable: caller is not owner nor approved\");\n\t\t\n\t\tif (bytes(_tokenURIs[tokenId]).length != 0) {\n            delete _tokenURIs[tokenId];\n        }\n\t\t\n\t\tif (_tokenReverses[_msgSender()] != 0) {\n            delete _tokenReverses[_msgSender()];\n        }\n\t\t\n\t\tif (_tokenResolvers[tokenId] != address(0)) {\n            delete _tokenResolvers[tokenId];\n        }\n\t\t\n\t\t_reset(tokenId);\n\n        _burn(tokenId);\n    }\n\n    function setOwner(address to, uint256 tokenId) external onlyApprovedOrOwner(tokenId) {\n        _transfer(ownerOf(tokenId), to, tokenId);\n    }\n\t\n\t/**\n     * Begin: set and get Reverses\n     */\n\tfunction reverseOf(address account) public view returns (string memory){\n        uint256 tokenId = _tokenReverses[account];\n        require(tokenId != 0, 'ReverseResolver: REVERSE_RECORD_IS_EMPTY');\n        require(_isApprovedOrOwner(account, tokenId), 'ReverseResolver: ACCOUNT_IS_NOT_APPROVED_OR_OWNER');\n        return _tokenURIs[tokenId];\n    }\n\t\n\tfunction setReverse(uint256 tokenId) public {\n        address _sender = _msgSender();\n        require(_isApprovedOrOwner(_sender, tokenId), 'ReverseResolver: SENDER_IS_NOT_APPROVED_OR_OWNER');\n        _tokenReverses[_sender] = tokenId;\n    }\n\t\n\tfunction removeReverse() public {\n        address _sender = _msgSender();\n        uint256 tokenId = _tokenReverses[_sender];\n        require(tokenId != 0, 'ReverseResolver: REVERSE_RECORD_IS_EMPTY');\n        delete _tokenReverses[_sender];\n    }\n\t/**\n     * End: set and get Reverses\n     */\n\t \n\t/**\n\t* Begin set and get Resolver\n\t**/\n\t\n\tfunction setResolver(uint256 tokenId, address resolver) external onlyApprovedOrOwner(tokenId) {\n        _setResolver(tokenId, resolver);\n    }\n\n    function resolverOf(uint256 tokenId) external view returns (address) {\n\t\tif (_exists(tokenId) == false){\n\t\t\treturn address(0);\n\t\t}\n\t\taddress resolver = _tokenResolvers[tokenId];\n        if (resolver == address(0)){\n\t\t\tresolver = address(this);\n\t\t}\n        return resolver;\n    }\n\t\n\tfunction removeResolver(uint256 tokenId) external onlyApprovedOrOwner(tokenId) {\n        require(tokenId != 0, 'ReverseResolver: REVERSE_RECORD_IS_EMPTY');\n        delete _tokenResolvers[tokenId];\n    }\n    \n\tfunction _setResolver(uint256 tokenId, address resolver) internal {\n        require (_exists(tokenId));\n        _tokenResolvers[tokenId] = resolver;\n    }\n\t/**\n     * End:Resolver\n     */\n\n\t/**\n     * Begin: Subdomain\n     */\n    function registerSubDomain(address to, uint256 tokenId, string memory sub) external \n        onlyApprovedOrOwner(tokenId) \n    {\n        _safeMintSubDomain(to, tokenId, sub, \"\");\n    }\n\t\n    function burnSubDomain(uint256 tokenId, string memory sub) external onlyApprovedOrOwner(tokenId) \n\t{\n        _burnSubDomain(tokenId, sub);\n    }\n\t\n\tfunction _safeMintSubDomain(address to, uint256 tokenId, string memory sub, bytes memory _data) internal {\n\t\trequire(to != address(0));\n        require (bytes(sub).length != 0);\n        require (StringUtil.dotCount(sub) == 0);\n        require (_exists(tokenId));\n\t\t\n\t\tstring memory _sub = StringUtil.toLower(sub);\n\t\t\n        bytes memory _newUri = abi.encodePacked(_sub, \".\", _tokenURIs[tokenId]);\n\t\t\n\t\tuint256 _newTokenId = genTokenId(string(_newUri));\n\n        uint256 count = StringUtil.dotCount(_tokenURIs[tokenId]);\n\t\t\n        if (count == 1) \n\t\t{\n            _subTokens[tokenId].add(_newTokenId);\n        }\n\n        if (bytes(_data).length != 0) {\n            _safeMint(to, _newTokenId, _data);\n        } else {\n            _safeMint(to, _newTokenId);\n        }\n        \n        _setTokenURI(_newTokenId, string(_newUri));\n\n        emit NewURI(_newTokenId, string(_newUri));\n    }\n\t\n\tfunction _burnSubDomain(uint256 tokenId, string memory sub) internal {\n        string memory _sub = StringUtil.toLower(sub);\n\t\t\n        bytes memory _newUri = abi.encodePacked(_sub, \".\", _tokenURIs[tokenId]);\n\t\t\n\t\tuint256 _newTokenId = genTokenId(string(_newUri));\n        // remove sub tokenIds itself\n        _subTokens[tokenId].remove(_newTokenId);\n\t\t\n\t\tif (bytes(_tokenURIs[_newTokenId]).length != 0) {\n            delete _tokenURIs[_newTokenId];\n        }\n\t\t\n        super._burn(_newTokenId);\n    }\n\tfunction subTokenIdCount(uint256 tokenId) public view returns (uint256) {\n        require (_exists(tokenId));\n        return _subTokens[tokenId].length();\n    }\n\t\n\tfunction subTokenIdByIndex(uint256 tokenId, uint256 index) public view returns (uint256) {\n        require (subTokenIdCount(tokenId) > index);\n        return _subTokens[tokenId].at(index);\n    }\n\t/**\n     * End:Subdomain\n     */\n\n  \n\t/**\n     * Begin: System\n     */\n\tfunction genTokenId(string memory label) public pure returns(uint256)  {\n        require (bytes(label).length != 0);\n        return uint256(keccak256(abi.encodePacked(label)));\n    }\n\n    \n\tfunction withdraw() external payable onlyOwner {\n        require(payable(msg.sender).send(address(this).balance));\n    }\n\t\n\t/**\n     * End: System\n     */\n\t/**\n     * Begin: working with metadata like: avatar, cover, email, phone, address, social ...\n     */\n\tfunction set(\n        string calldata key,\n        string calldata value,\n        uint256 tokenId\n    ) external override onlyApprovedOrOwner(tokenId)  {\n        _set(key, value, tokenId);\n    }\n\n    function setMany(\n        string[] calldata keys,\n        string[] calldata values,\n        uint256 tokenId\n    ) external override onlyApprovedOrOwner(tokenId)  {\n        _setMany(keys, values, tokenId);\n    }\n\n    function setByHash(\n        uint256 keyHash,\n        string calldata value,\n        uint256 tokenId\n    ) external override onlyApprovedOrOwner(tokenId)  {\n        _setByHash(keyHash, value, tokenId);\n    }\n\n    function setManyByHash(\n        uint256[] calldata keyHashes,\n        string[] calldata values,\n        uint256 tokenId\n    ) external override onlyApprovedOrOwner(tokenId)  {\n        _setManyByHash(keyHashes, values, tokenId);\n    }\n\n    function reconfigure(\n        string[] calldata keys,\n        string[] calldata values,\n        uint256 tokenId\n    ) external override onlyApprovedOrOwner(tokenId) {\n        _reconfigure(keys, values, tokenId);\n    }\n\n    function reset(uint256 tokenId) external override onlyApprovedOrOwner(tokenId) {\n        _reset(tokenId);\n    }\n\t/**\n     * End: metadata\n     */\n}",
  "sourcePath": "/home/ideofuzion/Tron/monorepo/TNS/smartcontracts/contracts/TWS.sol",
  "compiler": {
    "name": "solc",
    "version": "0.8.18+commit.f18bedfe.Emscripten.clang"
  },
  "schemaVersion": "2.0.1",
  "updatedAt": "2023-06-19T12:11:26.659Z"
}